:020000040800F2
:100000000080002045370008891900088B19000876
:100010008D1900088F1900089119000800000000D0
:10002000000000000000000000000000931900081C
:10003000951900080000000097190008A919000888
:100040009537000895370008953700089537000860
:100050009537000895370008953700089537000850
:100060009537000895370008953700089537000840
:100070009537000895370008953700089537000830
:10008000953700080000000095370008A519000802
:10009000991900089537000895370008953700082A
:1000A0009537000895370008953700089537000800
:1000B00095370008953700089537000895370008F0
:1000C00095370008953700089537000895370008E0
:1000D00095370008953700089537000895370008D0
:1000E00095370008953700089537000895370008C0
:1000F0009537000895370008953700080000000084
:100100000000000095370008000000009537000847
:100110009537000800000000953700089537000863
:10012000953700089537000895370008953700087F
:100130009537000800000000000000009537000817
:100140009537000895370008000000000000000007
:10015000000000000000000000000000000000009F
:1001600000000000000000000000000095370008BB
:1001700095370008000000000000000000000000AB
:10018000000000009537000800000000000000009B
:10019000000000000000000000000000000000005F
:1001A00000000000000000009537000895370008A7
:1001B00095370008953700089537000800000000C3
:1001C000000000009537000800000000000000005B
:0801D00095370008953700087F
:1002000030B490F800F020F007016FF0000C10F00F
:10021000070491F820F040F048804FF000046FF0A0
:100220000700D1E9002391F840F000F1080082FABC
:100230004CF2A4FA8CF283FA4CF3A2FA8CF34BBB87
:10024000D1E9022382FA4CF200F10800A4FA8CF200
:1002500083FA4CF3A2FA8CF3E3B9D1E9042382FACE
:100260004CF200F10800A4FA8CF283FA4CF3A2FAE3
:100270008CF37BB9D1E9062301F1200182FA4CF21B
:1002800000F10800A4FA8CF283FA4CF3A2FA8CF382
:10029000002BC6D0002A04BF04301A4612BAB2FAA4
:1002A00082F200EBD20030BC7047D1E9002304F0A9
:1002B0000305C4F100004FEAC50514F0040F91F8DE
:1002C00040F00CFA05F562EA05021CBF63EA05037B
:1002D00062464FF00004AAE74FF0FF0C1CEAD05230
:1002E0001EBF1CEAD15392EA0C0F93EA0C0F6FD099
:1002F0001A4480EA010C400218BF5FEA41211ED077
:100300004FF0006343EA501043EA5111A0FB013162
:100310000CF00040B1F5000F3EBF490041EAD37137
:100320005B0040EA010062F17F02FD2A1DD8B3F1B3
:10033000004F40EBC25008BF20F00100704790F022
:10034000000F0CF0004C08BF49024CEA502040EA74
:1003500051207F3AC2BFD2F1FF0340EAC25070473A
:1003600040F400004FF00003013A5DDC12F1190F78
:10037000DCBF00F000407047C2F10002410021FAEA
:1003800002F1C2F1200200FA02FC5FEA310040F102
:10039000000053EA4C0308BF20EADC70704792F07B
:1003A000000F00F0004C02BF400010F4000F013AB3
:1003B000F9D040EA0C0093F0000F01F0004C02BFAE
:1003C000490011F4000F013BF9D041EA0C018FE71D
:1003D0000CEAD15392EA0C0F18BF93EA0C0F0AD023
:1003E00030F0004C18BF31F0004CD8D180EA010049
:1003F00000F00040704790F0000F17BF90F0004FE2
:10040000084691F0000F91F0004F14D092EA0C0FC3
:1004100001D142020FD193EA0C0F03D14B0218BF56
:10042000084608D180EA010000F0004040F0FE409C
:1004300040F40000704740F0FE4040F44000704738
:1004400081F0004102E000BF83F0004330B54FEA85
:1004500041044FEA430594EA050F08BF90EA020FF2
:100460001FBF54EA000C55EA020C7FEA645C7FEA85
:10047000655C00F0E2804FEA5454D4EB5555B8BFA8
:100480006D420CDD2C4480EA020281EA030382EA19
:10049000000083EA010180EA020281EA0303362DAB
:1004A00088BF30BD11F0004F4FEA01314FF4801C7E
:1004B0004CEA113102D0404261EB410113F0004F90
:1004C0004FEA03334CEA133302D0524263EB430347
:1004D00094EA050F00F0A780A4F10104D5F1200EE5
:1004E0000DDB02FA0EFC22FA05F2801841F1000140
:1004F00003FA0EF2801843FA05F359410EE0A5F114
:1005000020050EF1200E012A03FA0EFC28BF4CF044
:10051000020C43FA05F3C01851EBE37101F00045FA
:1005200007D54FF0000EDCF1000C7EEB00006EEB07
:100530000101B1F5801F1BD3B1F5001F0CD3490891
:100540005FEA30004FEA3C0C04F101044FEA4452E8
:1005500012F5800F80F09A80BCF1004F08BF5FEA6F
:10056000500C50F1000041EB045141EA050130BD4F
:100570005FEA4C0C404141EB0101013C28BFB1F561
:10058000801FE9D291F0000F04BF01460020B1FAAC
:1005900081F308BF2033A3F10B03B3F120020CDA7F
:1005A0000C3208DD02F1140CC2F10C0201FA0CF05D
:1005B00021FA02F10CE002F11402D8BFC2F1200CC2
:1005C00001FA02F120FA0CFCDCBF41EA0C01904078
:1005D000E41AA2BF01EB0451294330BD6FEA0404C1
:1005E0001F3C1CDA0C340EDC04F11404C4F12002AC
:1005F00020FA04F001FA02F340EA030021FA04F3BE
:1006000045EA030130BDC4F10C04C4F1200220FA14
:1006100002F001FA04F340EA0300294630BD21FA52
:1006200004F0294630BD94F0000F83F4801306BF18
:1006300081F480110134013D4EE77FEA645C18BF0C
:100640007FEA655C29D094EA050F08BF90EA020FA3
:1006500005D054EA000C04BF1946104630BD91EA9B
:10066000030F1EBF0021002030BD5FEA545C05D19E
:100670004000494128BF41F0004130BD14F58004DD
:100680003CBF01F5801130BD01F0004545F0FE4151
:1006900041F470014FF0000030BD7FEA645C1ABF86
:1006A000194610467FEA655C1CBF0B46024650EABD
:1006B000013406BF52EA033591EA030F41F40021E9
:1006C00030BD00BF90F0000F04BF0021704730B56F
:1006D0004FF4806404F132044FF000054FF0000144
:1006E00050E700BF90F0000F04BF0021704730B505
:1006F0004FF4806404F1320410F0004548BF4042DA
:100700004FF000013EE700BF42004FEAE2014FEA2E
:1007100031014FEA02701FBF12F07F4393F07F4F09
:1007200081F06051704732F07F4208BF704793F00C
:100730007F4F04BF41F40021704730B54FF460741F
:1007400001F0004521F000411CE700BF50EA010222
:1007500008BF704730B54FF000050AE050EA0102CB
:1007600008BF704730B511F0004502D5404261EB3B
:1007700041014FF4806404F132045FEA915C3FF47C
:10078000D8AE4FF003025FEADC0C18BF03325FEA19
:10079000DC0C18BF033202EBDC02C2F1200300FACA
:1007A00003FC20FA02F001FA03FE40EA0E0021FAEF
:1007B00002F11444BDE600BF70B54FF0FF0C4CF4DD
:1007C000E06C1CEA11541DBF1CEA135594EA0C0F8F
:1007D00095EA0C0F00F0DEF82C4481EA030621EACA
:1007E0004C5123EA4C5350EA013518BF52EA033505
:1007F00041F4801143F4801338D0A0FB02CE4FF0B7
:100800000005E1FB02E506F00042E0FB03E54FF0E6
:100810000006E1FB03569CF0000F18BF4EF0010EDE
:10082000A4F1FF04B6F5007F64F5407404D25FEADA
:100830004E0E6D4146EB060642EAC62141EA55518D
:100840004FEAC52040EA5E504FEACE2EB4F1FD0CCF
:1008500088BFBCF5E06F1ED8BEF1004F08BF5FEA4D
:10086000500E50F1000041EB045170BD06F00046FF
:1008700046EA010140EA020081EA0301B4EB5C04AC
:10088000C2BFD4EB0C0541EA045170BD41F48011A4
:100890004FF0000E013C00F3AB8014F1360FDEBFC9
:1008A000002001F0004170BDC4F10004203C35DAA5
:1008B0000C341BDC04F11404C4F1200500FA05F328
:1008C00020FA04F001FA05F240EA020001F00042C9
:1008D00021F0004110EBD37021FA04F642EB06013F
:1008E0005EEA430E08BF20EAD37070BDC4F10C0469
:1008F000C4F1200500FA04F320FA05F001FA04F22D
:1009000040EA020001F0004110EBD37041F1000118
:100910005EEA430E08BF20EAD37070BDC4F1200523
:1009200000FA05F24EEA020E20FA04F301FA05F28B
:1009300043EA020321FA04F001F0004121FA04F233
:1009400020EA020000EBD3705EEA430E08BF20EA03
:10095000D37070BD94F0000F0FD101F0004640003D
:1009600041EB010111F4801F08BF013CF7D041EABF
:10097000060195F0000F18BF704703F000465200C3
:1009800043EB030313F4801F08BF013DF7D043EA94
:100990000603704794EA0C0F0CEA135518BF95EA4A
:1009A0000C0F0CD050EA410618BF52EA4306D1D1D1
:1009B00081EA030101F000414FF0000070BD50EAF0
:1009C000410606BF1046194652EA430619D094EA7A
:1009D0000C0F02D150EA013613D195EA0C0F05D164
:1009E00052EA03361CBF104619460AD181EA0301B8
:1009F00001F0004141F0FE4141F470014FF0000070
:100A000070BD41F0FE4141F4780170BD70B54FF00A
:100A1000FF0C4CF4E06C1CEA11541DBF1CEA13558A
:100A200094EA0C0F95EA0C0F00F0A7F8A4EB05046C
:100A300081EA030E52EA03354FEA013100F0888063
:100A40004FEA03334FF0805545EA131343EA12632C
:100A50004FEA022245EA111545EA10654FEA0026E1
:100A60000EF000419D4208BF964244F1FD0404F59A
:100A7000407402D25B084FEA3202B61A65EB0305F6
:100A80005B084FEA32024FF480104FF4002CB6EBB3
:100A9000020E75EB030E22BFB61A754640EA0C0033
:100AA0005B084FEA3202B6EB020E75EB030E22BF73
:100AB000B61A754640EA5C005B084FEA3202B6EBB4
:100AC000020E75EB030E22BFB61A754640EA9C0073
:100AD0005B084FEA3202B6EB020E75EB030E22BF43
:100AE000B61A754640EADC0055EA060E18D04FEA01
:100AF000051545EA16754FEA06164FEAC30343EAA1
:100B000052734FEAC2025FEA1C1CC0D111F4801F6D
:100B10000BD141EA00014FF000004FF0004CB6E766
:100B200011F4801F04BF01430020B4F1FD0C88BF05
:100B3000BCF5E06F3FF6AFAEB5EB030C04BFB6EB10
:100B4000020C5FEA500C50F1000041EB045170BD03
:100B50000EF0004E4EEA113114EB5C04C2BFD4EB30
:100B60000C0541EA045170BD41F480114FF0000EB4
:100B7000013C90E645EA060E8DE60CEA135594EA30
:100B80000C0F08BF95EA0C0F3FF43BAF94EA0C0F33
:100B90000AD150EA01347FF434AF95EA0C0F7FF4A8
:100BA00025AF104619462CE795EA0C0F06D152EAFC
:100BB00003353FF4FDAE1046194622E750EA4106E0
:100BC00018BF52EA43067FF4C5AE50EA41047FF4F1
:100BD0000DAF52EA43057FF4EBAE12E74FF0FF3C56
:100BE00006E000BF4FF0010C02E000BF4FF0010C27
:100BF0004DF804CD4FEA410C7FEA6C5C4FEA430CA0
:100C000018BF7FEA6C5C1BD001B050EA410C0CBFEE
:100C100052EA430C91EA030F02BF90EA020F002050
:100C2000704710F1000F91EA030F58BF994208BFB7
:100C300090422CBFD8176FEAE37040F00100704774
:100C40004FEA410C7FEA6C5C02D150EA013C07D1CB
:100C50004FEA430C7FEA6C5CD6D152EA033CD3D016
:100C60005DF8040B704700BF8446104662468C4610
:100C70001946634600E000BF01B5FFF7B7FF002843
:100C800048BF10F1000F01BD4DF808EDFFF7F4FF6C
:100C90000CBF012000205DF808FB00BF4DF808EDF7
:100CA000FFF7EAFF34BF012000205DF808FB00BF1A
:100CB0004DF808EDFFF7E0FF94BF012000205DF83C
:100CC00008FB00BF4DF808EDFFF7CEFF94BF0120F1
:100CD00000205DF808FB00BF4DF808EDFFF7C4FFEA
:100CE00034BF012000205DF808FB00BF4FEA41023D
:100CF00012F5001215D211D56FF47873B3EB62526E
:100D000012D94FEAC12343F0004343EA505311F094
:100D1000004F23FA02F018BF404270474FF0000026
:100D2000704750EA013005D111F0004008BF6FF064
:100D3000004070474FF00000704700BF4A0011D2DA
:100D400012F5001211D20DD56FF47873B3EB625225
:100D50000ED44FEAC12343F0004343EA505323FA31
:100D600002F070474FF00000704750EA013002D1A6
:100D70004FF0FF3070474FF00000704780F00040A8
:100D800002E000BF81F0004142001FBF5FEA410363
:100D900092EA030F7FEA226C7FEA236C6AD04FEA63
:100DA0001262D2EB1363C1BFD218414048404140A8
:100DB000B8BF5B42192B88BF704710F0004F40F45A
:100DC000000020F07F4018BF404211F0004F41F476
:100DD000000121F07F4118BF494292EA030F3FD042
:100DE000A2F1010241FA03FC10EB0C00C3F1200355
:100DF00001FA03F100F0004302D5494260EB4000E4
:100E0000B0F5000F13D3B0F1807F06D340084FEA4E
:100E1000310102F10102FE2A51D2B1F1004F40EB43
:100E2000C25008BF20F0010040EA030070474900AB
:100E300040EB0000013A28BFB0F5000FEDD2B0FA48
:100E400080FCACF1080CB2EB0C0200FA0CF0AABF6B
:100E500000EBC25052421843BCBFD0401843704709
:100E600092F0000F81F4000106BF80F4000001320F
:100E7000013BB5E74FEA41037FEA226C18BF7FEAE6
:100E8000236C21D092EA030F04D092F0000F08BF28
:100E90000846704790EA010F1CBF0020704712F00F
:100EA0007F4F04D1400028BF40F00040704712F14E
:100EB00000723CBF00F50000704700F0004343F0B3
:100EC000FE4040F4000070477FEA226216BF0846E9
:100ED0007FEA23630146420206BF5FEA412390EAAC
:100EE000010F40F4800070474FF0000304E000BFA2
:100EF00010F0004348BF40425FEA000C08BF704753
:100F000043F0964301464FF000001CE050EA010216
:100F100008BF70474FF000030AE000BF50EA01022B
:100F200008BF704711F0004302D5404261EB410118
:100F30005FEA010C02BF84460146002043F0B6433D
:100F400008BFA3F18053A3F50003BCFA8CF2083A62
:100F5000A3EBC25310DB01FA02FC634400FA02FC6B
:100F6000C2F12002BCF1004F20FA02F243EB020072
:100F700008BF20F00100704702F1200201FA02FCD4
:100F8000C2F1200250EA4C0021FA02F243EB0200C7
:100F900008BF20EADC7070474FEA4002B2F1FE4F12
:100FA0000FD34FF09E03B3EB12620DD94FEA00232B
:100FB00043F0004310F0004F23FA02F018BF404204
:100FC00070474FF00000704712F1610F01D14202EB
:100FD00005D110F0004008BF6FF0004070474FF09F
:100FE0000000704753B94AB9002908BF00281CBF48
:100FF0004FF0FF314FF0FF3000F00CB8ADF1080CAE
:101000006DE904CE06F016FEDDF804E0DDE902230A
:1010100004B07047704700BF0348044B834202D0BE
:10102000034B03B118477047C4010020C4010020DE
:10103000000000000548064B1B1AD90F01EBA30165
:10104000491002D0034B03B118477047C401002078
:10105000C40100200000000010B5064C237843B9FD
:10106000FFF7DAFF044B13B10448AFF3008001230C
:10107000237010BDC401002000000000F07E0008B5
:1010800008B5054B1BB105490548AFF30080BDE825
:101090000840FFF7CFBF00BF00000000C8010020DC
:1010A000F07E00082DE9F047D8B000F0EBF800F032
:1010B0002BFE6948684EDFF8A481694F00F05AFFA3
:1010C00000F0ACFE00F002FD01F0B6F800F0C2FB4B
:1010D000022001F007F9012211464FF0904003F081
:1010E00009FE02F023FA5C4802F0D4FA002002F074
:1010F000B0FA00213C2212A8119106F0B9FC00239D
:1011000005930693574D01F023F900F0B1FD00F06F
:101110000FFB402000F0E8FD78B111A907A800F00E
:10112000D5FD50B907A911AA31A800F02FFF011E63
:1011300003DD89B231A800F063FB03F03DF82B68B2
:10114000C01AB0F57A7FDED905A9304602F0CCFA94
:1011500006A9304602F0DEFADDF814904846FFF7A3
:101160001BFF414604460698FFF7B6F8FFF714FF49
:1011700082462046FFF7BCFE01464846FFF702FEC6
:101180003946FFF7A9F8FFF707FF80EAE073A3EB02
:10119000E07322463449DFF8D49021A802F0D8F851
:1011A00000244FF47842CDE90124314B5A68009273
:1011B0001B68304A2146204602F0DEF94FF4FC63FA
:1011C00002940193D9F804300093D9F8003021AA91
:1011D0001621204602F0D0F92749524621A802F0F4
:1011E000B7F840F2FF7302940193D9F804300093EA
:1011F000D9F8003021AA2C21204602F0BDF902F0D6
:10120000DBFF3C214FF47A73B0FBF3F01823B0FB03
:10121000F1F2B2FBF1FC01FB120001FB1C22BCFB52
:10122000F3FE019003FB1EC300924021134A21A844
:1012300002F0A2F8124B02944FF6FF7201925A6824
:1012400000921B6821AA41215A2002F095F902F070
:10125000B3FF286056E700BFE40100200000C84249
:1012600000007A44E0010020087F000870000020A0
:1012700078000020127F0008217F0008277F0008E7
:1012800080000020F0B5CBB002F07AFF38220021B8
:101290002BA806F0EDFB1422002106A806F0E8FBBF
:1012A0004422002139A806F0E3FB002004F052FF9D
:1012B0004FF480754023CDE92E53222702230125C8
:1012C000042655222BA8CDE93153CDE93462CDE96E
:1012D00036332B973393389304F094FF00B1FEE735
:1012E000CDE908000F2403230A90082106A8CDE9C0
:1012F000064305F0BFF900B1FEE74FF444533993BC
:101300004FF00073CDE94530419039A805F09EFAC1
:10131000044600B1FEE74FF000530C934BF67F33C9
:10132000CDE90E370B9020230D900BA8109305F0FC
:10133000C9FB224621464FF0FF3002F069FF2A4BDD
:10134000DA6C42F02002DA64DA6C02F020020192D8
:10135000019ADA6C42F00102DA64DA6C02F00102FE
:101360000292029ADA6C42F00202DA64DA6C02F05B
:1013700002020392039ADA6C42F00402DA64DA6C35
:1013800002F004020492049ADA6C42F04002DA6439
:10139000DB6C03F0400305933422214611A8059B22
:1013A00006F066FB11A803F079FB179B03F4E063DA
:1013B000B3F5806F16D003F0ADF998B903F0C8F912
:1013C000014678B930221FA806F052FB4FF4806323
:1013D0001EA824931E96239503F002FA03F0CAF97F
:1013E00003F0AAF94BB0F0BD0010024072B6BFF393
:1013F0004F8FBFF36F8F704762B6704718B10228E6
:101400000CBF01200220704707B50E4B02689A42BC
:1014100015D103F5DA3302219A6D42F400029A6580
:101420009B6D03F40003019300221420019B02F042
:10143000EFFE142003B05DF804EB02F01BBF03B015
:101440005DF804FB005C004000F52671D0F8D8027E
:1014500002F02FBC282303FB0103D0F8D802D3F8F5
:10146000642102F053BC282303FB0103D0F8D80207
:101470005A6A02F083BCD0F8D80202F018BD10B549
:101480004379022B044600D0FEE7D0F8D8020121B0
:1014900002F0F7FCD4F8D802BDE8104002F0CABC54
:1014A00010B50446D0F8D80202F0EEFC637A23B1FE
:1014B000024A136943F00603136110BD00ED00E01A
:1014C000437A23B1044A136923F006031361D0F869
:1014D000D80202F0E2BC00BF00ED00E038B50446DF
:1014E0001B481C4B03604FF40273C0F8D84201251F
:1014F000C4F8C00283800223C371856003F097FFA4
:1015000000221146D4F8C002182304F0F3FDD4F8E9
:10151000C00258230022802104F0ECFDD4F8C00260
:10152000C0230022812104F0E5FD2946D4F8C00241
:101530004FF48873002204F0DDFDD4F8C0024FF4AC
:1015400080730022822104F0D5FD002038BD00BF49
:10155000FC020020005C004008B5D0F8C00203F097
:10156000BAFFBDE80840FFF749BF10B51446D0F8F0
:10157000C0021A46234604F0BBFCBDE81040FFF74A
:101580003DBF08B5D0F8C00204F0E6FCBDE8084055
:10159000FFF734BF08B5D0F8C00204F044FDBDE841
:1015A0000840FFF72BBF08B5D0F8C00204F06BFD70
:1015B000BDE80840FFF722BF11F0800FD0F8C0321D
:1015C0004FF028021BBF01F07F0102FB013302FB39
:1015D0000133987C08BF93F85201704708B5D0F8E2
:1015E000C00203F08DFFBDE80840FFF707BF08B554
:1015F000D0F8C00204F0FCFCBDE80840FFF7FEBED6
:1016000008B5D0F8C00204F0D5FCBDE80840FFF7EB
:10161000F5BED0F8C00204F0E3BC000010B50446EB
:1016200011B101290DD010BD437A23B10B4A1369C2
:1016300023F006031361D4F8D802BDE8104002F08D
:101640002CBCD0F8D80202F01FFC637A002BEAD041
:10165000024A136943F006031361E4E700ED00E07A
:10166000004870479C02002070470020704700002F
:1016700070B50C4E0C4B0D4D0D49002422463046E2
:10168000C3F80048C3F80448C5E9884402F024FDC3
:10169000D5F82012304605EB811102F023FD2046DB
:1016A00070BD00BFE4100020B4060020BC0E002076
:1016B0007406002021280AD10023C2220B704A7030
:1016C000CB7001220B714B7108238A708B71002043
:1016D0007047000010B5144CD4F82022D4F824022E
:1016E000531C03F0070383420ED1052000F0A6FE31
:1016F000D4F820120D4804EB811102F0F3FC0B48E2
:1017000002F00AFD012010BD8032096844F8221061
:101710000648C4F8203204EB831102F0E3FC0348CE
:1017200002F0FAFC0020EEE7BC0E0020E4100020DE
:10173000F8B52D4BD3F8B8325A6D6AB92B492C4DF8
:10174000D1F80008D1F80438144698420FD10CB1F2
:10175000C1F8040892B2BAB9264CFFF747FED4E9A3
:1017600088329A423BD1BDE8F840FFF745BE0132CE
:10177000CC5C05F8014B0133402AC3F30A034FF058
:101780000104E2D1C1F804381949174802F0A4FC59
:10179000154802F0ACFCDFE704EB831329789A5D6F
:1017A0000D2A13D1384600F063FC00232B7001365C
:1017B000D4F8243203F1800254F82220B242EBD84C
:1017C000013303F00703C4F82432CCE79A2984BF1D
:1017D00000232B702B78591CFA542970E7E7064D2B
:1017E000064F0026E4E700BFE4100020B406002006
:1017F00074060020BC0E0020D8050020D90500206A
:1018000038B504460D46FFF7F1FD114AD2F800380D
:10181000D2F804085919C1F30A0181420BD02046BD
:101820002544002185420BD109B1C2F80038BDE83A
:101830003840FFF7E1BDBDE83840062000F0FEBDAE
:1018400010F8011BD1540133C3F30A030121E9E766
:10185000B406002008B50C490C48002202F0F4F947
:1018600000B1FEE70A49094802F003FA00B1FEE7B9
:101870000849064802F029FC00B1FEE7034802F0DF
:10188000FFF900B1FEE708BD44000020E41000208D
:101890005401002000000020122301480B807047F3
:1018A00030000020042301480B8070472C000020EA
:1018B000002370B54D1C1E46DCB2A24200D870BD9C
:1018C000040FB0F1204F34BF3034373401F81340E7
:1018D000000105F813600133EEE700001A2310B58C
:1018E0000B800A4BD3F89005D3F8982580180AD0BE
:1018F000D3F8944506490822FFF7DAFF0422103195
:101900002046FFF7D5FF034810BD00BF0070FF1F42
:10191000120000201000002010B5044C04480A46B4
:10192000214602F035F9204610BD00BFA813002063
:10193000397F000810B5044C04480A46214602F0DD
:1019400027F9204610BD00BFA8130020497F0008DA
:1019500010B5044C04480A46214602F019F9204605
:1019600010BD00BFA81300207F7F000810B5044CF5
:1019700004480A46214602F00BF9204610BD00BF7C
:10198000A81300208A7F00087047FEE7FEE7FEE705
:10199000FEE7704770477047014803F0C5BD00BFC0
:1019A000FC020020FFF7F8BF08B502F0F9FBBDE824
:1019B000084002F082BC704770B5164E33783BBBCE
:1019C000154C164863604FF44072C4E90223144A70
:1019D000006812782274134A6374012512686261E8
:1019E0000E210222C4E909052046C4E90651C4E9D2
:1019F0000B12C4E90D33A3742262E36302F062FCAC
:101A0000204602F041FD3570BDE8704000F086BC14
:101A100070BD00BFB02E0020BC2E0020B42E0020D0
:101A200068000020B82E002010B5074C2378012B49
:101A300008D1064802F03EFD00232370BDE81040A7
:101A400000F034BC10BD00BFB02E0020BC2E002022
:101A5000064B1B78012B07D00228054B14BF02222E
:101A600005221A6000F022BC704700BFB02E002093
:101A7000B42E0020134B1B78012B21D009281AD833
:101A8000DFE800F01B050B0F11131517190D4FF4AC
:101A9000FA730D4A136000F009BCC823F9E77823F4
:101AA000F7E76423F5E75023F3E72823F1E714234E
:101AB000EFE70723EDE70A23EBE74FF47A73E8E754
:101AC000704700BFB02E0020B82E0020324B2DE909
:101AD000F0419A6D42F000729A659A6D8AB002F0F8
:101AE00000720192019ADA6C42F00202DA64DA6C56
:101AF00002F002020292029ADA6C42F00402DA6404
:101B0000DA6C02F004020392039ADA6C42F00102EA
:101B1000DA64DB6C03F00103002402250126049340
:101B2000102705A94FF09040049BCDE90576CDE93B
:101B3000075403F00BF83946184F22464FF09040F7
:101B400003F0D8F84FF4005805A93846CDE90586CA
:101B5000CDE9075402F0FAFF32464146384603F019
:101B6000C9F84FF4407305A9CDE905350C480923A0
:101B70000993CDE9074402F0E9FF0420FFF77AFF5B
:101B80002846FFF765FF074B074A1A60074B1C7092
:101B90000AB0BDE8F08100BF001002400008004814
:101BA00000040048BC2E002000640040B02E00203D
:101BB000064B1B78012B07D00038054B18BF0120BE
:101BC0004000D86000F072BB704700BFB02E00200C
:101BD000BC2E0020054B1B78012B06D00038044B8F
:101BE00018BF0120187000F061BB7047B02E0020B4
:101BF000680000202DE9F0411C4F07F5805805468C
:101C0000B8F80039B8F80229013303F03F039342D2
:101C10000E4605D1042000F011FC0120BDE8F08142
:101C2000C06800F0A9F940288646F6D80FCDB8F86C
:101C300000C9242404FB0C7404F580540FC40FCD98
:101C40000FC42B68236007EB8C17B644764507D189
:101C50000CF1010C0CF03F0CA8F800C90020DDE7E6
:101C600016F8013B07F8013BF0E700BFA81500207C
:101C700070B5144D144E05F58054B4F80229B4F82B
:101C800000399A4203D0304602F03EFD00B970BDE3
:101C9000B4F80229242101FB025101F5805105EB22
:101CA0008212304602F03AFCB4F80239013303F0F4
:101CB0003F03A4F8023910B1022000F0BFFB00F08E
:101CC000F5FADAE7A8150020BC2E002010B5024670
:101CD0000B460448402102F089FC044600F01EFB3C
:101CE000204610BDBC2E002008B5054B187830B139
:101CF0000448402102F0FEFC003818BF012008BD56
:101D0000B02E0020BC2E00200D480E4A4FF48273E6
:101D1000C0E9002300234FF4E062C0E902324FF42F
:101D200000711822C0E906120A22C0E90433C0E992
:101D30000833C0E90B238362436304F0C1BF00BFD3
:101D4000380200200030014070B5044688B01422EB
:101D5000002103A805F08CFE22682F4B9A4259D12E
:101D600003F560430F211A6E42F480521A661A6E10
:101D700002F480520092009ADA6C42F00102DA64B6
:101D8000DA6C02F001020192019ADA6C42F002026E
:101D9000DA64DB6C03F00203002202934FF0904000
:101DA000012402250026029B02F0A4FF0F2303A9B1
:101DB0004FF09040CDE90334CDE9055602F0C6FE60
:101DC00003A94FF09040CDE90344CDE9055602F058
:101DD000BDFE0823CDE9033403A903234FF090404F
:101DE0000693059402F0B2FE062303A94FF090403B
:101DF000CDE90334CDE9054602F0A8FEE023CDE9A4
:101E0000033503A905234FF09040CDE905650793FD
:101E100002F09CFE08B070BD00300140F8B5204CC7
:101E2000204B2360A3F17563A3F57C230025A3F663
:101E3000036301272046C4E90257C4E90455C4E9F5
:101E400006556360256203F099F8064630B11648DE
:101E50002A464FF4005102F04DFFFEE74FF4805147
:101E6000204603F099FA054630B10F4832464FF448
:101E7000005102F03FFFFEE70146204603F0B2FAB0
:101E800030B109482A464FF4005102F033FFFEE713
:101E90003A460548BDE8F8404FF4005102F02ABF29
:101EA000E4010020007800400004004870B59AB0BA
:101EB00004461422002104A805F0DAFD4422002182
:101EC00009A805F0D5FD2268264B9A4247D14FF468
:101ED000807609A8099604F0B9FC054600283ED191
:101EE000214CE36C43F00103E364E36C03F0010372
:101EF0000193019BE36C43F00403E364E36C03F0A0
:101F000004030293029B01234FF40052CDE90630F3
:101F100004A91648CDE9042302F018FE0223049612
:101F200004A912264FF090400893CDE90565079566
:101F300002F00CFE4FF40063CDE904360C48082390
:101F400004A90893CDE9065502F000FEA36D43F005
:101F50008043A365A36D03F080430393039B1AB0F2
:101F600070BD00BF0078004000100240000400482F
:101F700000080048FFF79ABF0F289ABF024B185677
:101F80004FF0FF30704700BFC37F00082DE9F041DC
:101F90000E46904600219B22044605F069FDB36978
:101FA000002B4FD1B368002B47D174232370D6E99F
:101FB0000023B3F1804F01BF2378203B2370082515
:101FC00014BF0325326861192B46013B02F00F0054
:101FD00013F0FF0301F801094FEA1212F5D16B1C4F
:101FE000F289E254F068FFF7C7FFC2B2402A05F158
:101FF0000207034638D8424608EB000C3E46701CE8
:10200000624504EB0601C0B223D15B00DBB20335AD
:1020100058193B44C0B2DBB2012662780136092A66
:1020200094BF30323732F6B2D2B29E4204F8012F5A
:10203000F3D30D230B70BDE8F081B3F1005FB6D18F
:102040007223B3E77369B3F5801F0CBF6223642367
:10205000ACE711780909A15512F8011B023601F00D
:102060000F012154F6B2CAE74FF0FF30E3E700005A
:10207000F0B5ABB0044624220D4601A8002105F0BE
:10208000F7FC00213C220BA80A9105F0F1FC214647
:102090000122AA421BD32378642B27D8402B29D9AD
:1020A000413B232B26D8DFE803F046AC2D9E572575
:1020B0002525252525253F252825256B30A1254DBE
:1020C0002571362525252525252525A5259A4B78F5
:1020D000602B06D9573BDBB2013201F8013FD2B287
:1020E000D7E7402B8CBF373B303BF4E7722B4AD00D
:1020F000742B4BD04FF0FF3002E0FFF75DFC002067
:102100002BB0F0BDFFF790FCF9E760780928F1D813
:10211000FFF7B0FCF3E76078022802D1FFF798FCE4
:10212000EDE70528FAD0E5E76078012818BF002020
:10213000FFF73EFDE3E76078012818BF0020FFF7B6
:1021400049FDDCE73A4B1C682046FEF759F881B29E
:102150002046FFF755FBD2E700213C221BA81A912D
:1021600005F086FC00F08AF940210346314A1AA89E
:1021700001F002F91AA8FEF743F881B21AA8E8E7BD
:102180004FF0804302934FF000530393029BB3F14F
:10219000804F14BF0323082301220021A05C0132D9
:1021A00000EB0111D0B28342F8D29A1C01330191A5
:1021B000E05C079BB3F5001F2AD10F289AD80004D2
:1021C0000490FFF7D9FEC3B2402B93D80AAD002389
:1021D0002946984220DC01A8FFF70CFD8FE74FF459
:1021E00000130793D2E74FF4001307934FF0804397
:1021F0000293CBE74FF480134FF40011CDE9063181
:10220000C4E74FF480134FF40012CDE90632EDE736
:10221000002BD4D10828D1E7A618A75C7678023223
:1022200006EB071605F8016BD2B20133D1E700BF08
:102230006C000020A87F00081A4B70B5DA6C42F0E1
:102240000102DA64DA6C88B002F001020192019AAC
:10225000DA6C42F00202DA64DB6C03F002030293F0
:1022600001240025029B05944FF4004303A94FF07D
:102270009040CDE90334CDE9065502F067FCCDE985
:1022800005450795084D4FF4006603A92846CDE99A
:10229000036402F05BFC22463146284602F02AFD28
:1022A00008B070BD001002400004004838B50A4C68
:1022B00025687DB901F080FF084B1B68C01A1928FA
:1022C00008D907482A464FF4006102F013FD01F0D7
:1022D00073FF206038BD00BF302F0020282F002062
:1022E0000004004838B504460025A54200D138BD99
:1022F00001224FF400414FF0904002F0FBFC6420BB
:1023000001F060FF00224FF400414FF0904002F0D6
:10231000F1FC642001F056FF0135E6E710B50A4CE8
:10232000236883B901F048FF084B1B68C01A1928BD
:1023300009D901224FF400414FF0904002F0DAFC3D
:1023400001F03AFF206010BD342F00202C2F002018
:1023500010B500F08DF848B301F02EFF044600F0F0
:1023600087F8241AB4F5FA6F20D22C4C01F024FF20
:102370002368C01A962818D901F01EFF2060284C47
:102380004FF4004122784FF0904002F0B3FC2278E5
:1023900024484FF4006102F0ADFC2378B3FA83F3D4
:1023A0005B092370204B01221A7010BD1E4C23784C
:1023B0003BB11C4801224FF4006102F09BFC00235A
:1023C00023701A4C236893B101F0F6FE2368C01AFB
:1023D00019280CD900224FF400414FF0904002F030
:1023E00089FC0023236001F0E7FE114B1860114CBB
:1023F0002368002BD9D001F0DFFE2368C01A19280A
:10240000D3D9084801224FF4006102F073FC002385
:10241000236001F0D1FE084B1860C6E7202F002092
:10242000252F002000040048242F0020342F0020F6
:102430002C2F0020302F0020282F0020062810B538
:1024400004460ED801F0B8FE064B43F8240001F014
:10245000B3FE054B054A186011680123A3400B43E6
:10246000136010BD3C2F0020382F0020582F002073
:10247000014B1868704700BF382F0020014B1868C7
:10248000704700BF582F00209A4238BF88547047C9
:1024900070472DE9F84F98460D9B15469A07DDE9E0
:1024A0000B4906460F4623D02A460A9B03EB040A33
:1024B0001444A24220D10D9B9B0705D5A2EB050A2F
:1024C000D14505EB0A0420D82046BDE8F88F4346E5
:1024D00039462020B0470AF1010ACA450AEB0B022F
:1024E000F5D3A9EB04024C4588BF00222A44DCE75F
:1024F000A246A5EB040BF0E702F1010B1AF8010D5F
:1025000043463946B0475A46D3E743462246394602
:102510002020B0470AF1010AD2E72DE9F0479E4694
:10252000DDE90D3C1CF0020FDDE90874DDE90B6507
:102530009DF828801FD10CF001094BB1B9F1000FB3
:1025400006D0B8F1000F02D11CF00C0F00D0013BF7
:102550004FF0300A02E007F804A00134A54201D987
:10256000202CF8D1B9F1000F05D04FF03009A3426B
:1025700001D9202C1BD11CF0100F15D01CF4806F3A
:1025800032D1C4B1AC4201D09C422DD1651E12D0D3
:10259000102E3FD11CF0200FA4F1020456D1782652
:1025A0003E5530267E556C1C202C29D00DE007F8B6
:1025B00004900134DBE7102E10D11CF0200F2FD136
:1025C00078243C7030247C700224B8F1000F31D0A4
:1025D0002D253D55013414E06224F2E7022EFBD094
:1025E00030243C700124F0E7102E1BD11CF0200F8A
:1025F0002AD1202C04D0651C78263E55202DD0D120
:102600002024CDE90A3CCDE908747346BDE8F047C3
:10261000FFF73FBF022EC4D162247C550135EDE7A0
:102620005824CEE7022E03D1202CE9D02546F3E72B
:102630002546E3E71CF0040F01D02B25C9E71CF069
:10264000080FDED02025C4E7202CD9D0651C5826E1
:10265000D3E72DE9F04391B0189D1A9F1D9E2DB927
:1026600026F0100416F4806F264622D116F0200FB3
:1026700014BF4FF0410E4FF0610EAC460DF1200833
:102680000025AEF10A0EBCFBF7F907FB19C95FFA8A
:1026900089F4B9F1090F94BF30347444E4B2BC45F5
:1026A00008F8014BBCFBF7F405F1010501D3202D1F
:1026B00010D11C9C05941B9C0696CDE903749DF8D3
:1026C0006440CDE9015408AC0094FFF726FF11B037
:1026D000BDE8F083A446D6E72DE9F04F95B0DDE9DB
:1026E0001E76CDE90A2357EA0603CDE90801DDE9A4
:1026F000229B269C05D124F0100314F4806F1C4605
:1027000037D114F0200F14BF412361230DF1300A9B
:102710000025A3F10A0831464A465B463846FEF7D3
:1027200061FCD2B2092A94BF303242444F45D2B242
:1027300076EB0B060AF8012B05F1010501D3202DDC
:1027400014D1259B0593249B0694CDE903939DF812
:102750008030CDE901530CAB0093DDE90801DDE9E0
:102760000A23FFF7DAFE15B0BDE8F08F07460E46E4
:10277000D1E70025E5E700002DE9F04F93B0CDE962
:102780000A32DDE91C34CDE90634DDE91E530E932F
:10279000DDE90623CDE9080110461946209EFEF723
:1027A00073FA80B1DDE90601C74B4FF0FF32FEF747
:1027B00093FA40B9DDE906014FF0FF326FF4801360
:1027C000FEF76CFA80B10E9B2096CDE91E53DDE931
:1027D0000634DDE90801CDE91C34DDE90A3213B025
:1027E000BDE8F04F00F090B9DDE9060100220023BA
:1027F000FEF754FA002800F03781DDE906A303F163
:10280000004BCBF30A5016F48063A0F2FF3008BFF0
:1028100006250F93FDF766FF9BA3D3E90023FDF781
:10282000CBFF9BA3D3E90023FDF710FECBF31304EA
:10283000894644F07F518046A44B0022504641F423
:102840004011FDF701FE94A3D3E90023FDF7B4FF87
:1028500002460B4640464946FDF7F8FDFEF746FAAC
:102860000446FDF73FFF8EA3D3E900238046894647
:10287000FDF7A2FF964B0022FDF7E8FDFEF736FAC2
:1028800089A3D3E90023074649464046FDF794FF54
:10289000804638468946FDF725FF85A3D3E9002306
:1028A000FDF78AFF02460B4640464946FDF7CCFD40
:1028B00002460B46CDE90C23FDF77EFFDDE90C2334
:1028C0008046894610461946FDF7C0FD814BCDE98B
:1028D0001001002240464946FEF798F87E4B002240
:1028E000FDF7B4FD02460B4640464946FEF78EF81A
:1028F0007A4B0022FDF7AAFD02460B4640464946A8
:10290000FEF784F8DDE90C238046894600204FF06D
:102910008041FDF799FD02460B4640464946FDF7CA
:1029200095FD02460B46DDE91001FEF76FF807F250
:10293000FF376B4B0022FDF789FD00223B05FDF7B9
:102940003BFF52465B4680468946FEF7C5F90028A4
:1029500040F08D80CDE90C8904F16303C72B34BFAF
:102960000427052731051FD553A3D3E9002350467B
:102970005946FEF7A7F9002800F0B48050A3D3E928
:10298000002350465946FEF789F9002800F0AA8036
:10299000A542C8BF2C1B4FF00007CCBF04F1FF3588
:1029A000002546F480663C460E9B9F4234BFA3EB55
:1029B00007084FF0000816F0020903D0002F18BFD7
:1029C0004FF000083CB150465946DDE90C23FEF7B4
:1029D0001DF882468B46DDE9060100220023FEF742
:1029E0005DF910B10BF100439B4626F40063CDE97D
:1029F0000383CDE900ABDDE90A32DDE90801029588
:102A000000F082F802465FB316F0200F00F10105D6
:102A1000DDE909130CBF65204520089EB04705235A
:102A2000059300220A23002CCDE9023207F1FF377B
:102A30004FEAD473B8BF644201932A46DDE9080126
:102A40000A9B04970094FFF704FE0246B9F1000FB9
:102A500006D00B9BC41A0B9B1A190E9BA3424AD893
:102A6000104613B0BDE8F08FDDE906ABC9E61A4B9E
:102A7000002240464946FDF7C9FF013CCDE90C0163
:102A80006AE700BFAFF30080FB799F501344D33F48
:102A9000B3C8608B288AC63F61436F63A787D23F64
:102AA00071A379094F930A401655B5BBB16B02402B
:102AB000EF39FAFE422EE63F2D431CEBE2361A3F79
:102AC0000000000080842E41FFFFEF7F0000F83FF0
:102AD0000000E03F00002C400000244000001840AF
:102AE0000000F03F002D3FF45FAF0F9B002B3FF441
:102AF0005BAF013D58E7DDE90913089D2020A84799
:102B00000134A8E7000000002DE9F04F97B0DDE99F
:102B100020ABCDE90501CDE90723504652465B467F
:102B20005946DDE92257249EFEF7AEF870B903231B
:102B3000CDE922762193B44B2093DDE90501DDE94F
:102B4000072317B0BDE8F04FFFF7A3BC4FF0FF32EB
:102B50006FF4801350465946FEF7A0F828B10423BD
:102B60002193CDE92276A94BE6E7A94B4FF0FF323E
:102B700050465946FEF7B0F868B1A64A06F004037D
:102B8000002B08BF0322A44B1CBF13460422CDE92F
:102B900022762192D0E798A3D3E9002350465946E4
:102BA000FEF79AF838B996A3D3E900235046594660
:102BB000FEF774F868B1DDE90723DDE90501CDE929
:102BC0002376CDE920AB229517B0BDE8F04FFFF793
:102BD000D3BD0022002350465946FEF75FF8002877
:102BE00000F09A805B46524600200021FDF72CFC45
:102BF000012382468B46099316F4806400F08E8090
:102C0000092D40F28E800EABA5F10902002430217F
:102C10000134202C03F8011BA5EB040901D09442D8
:102C2000F6D159465046FEF761F87C4B03EBC903D9
:102C3000D3E900230546CDE90A23FDF753FD0246FB
:102C40000B4650465946FDF7FFFBDDE90A23FDF729
:102C5000B3FD02460B46CDE90C23FEF76FF8804624
:102C6000FDF730FD02460B46DDE90C01FDF7ECFBFC
:102C700002460B46CDE90C23694B0022FEF72CF8E7
:102C8000002851D008F101084046FDF71BFD02461F
:102C90000B46DDE90A01FEF70BF810B101354FF0E4
:102CA0000008B9F1000F50D12846FDF71BFD024680
:102CB0000B4650465946FDF7C7FB594B002280464C
:102CC0008946FDF7EBFF30B1554B0022404649469F
:102CD000FEF702F810B1E80700D501350EAB1A195E
:102CE0000A21202C0AD095FBF1F001FB105530355C
:102CF00002F8015B013405460028F2D106F0030218
:102D0000012A5FD1002F5DD0099A12B916F00C0F7D
:102D100000D0013F302244E009906DE74FF00609F2
:102D20007FE7A94600247CE7DDE90C013C4B00224B
:102D3000FDF7B4FF0028B4D1B8F1000F02D018F0AD
:102D4000010FAED008F10108ABE70EAB23440A2116
:102D5000202C0DD0B8FBF1F001FB10823032B8F11D
:102D6000090F03F8012B09F1FF3904F1010411D80F
:102D7000A1440EAA3021202CB0D0A14504F10103BA
:102D80000AD11C4609F158030DEB03092E2309F85B
:102D9000203CA3E78046DBE7A1541C46EBE71A552D
:102DA0000134A7420ED9202CF9D1CDE90034CDE968
:102DB0000276DDE90723DDE90501FFF76AFB17B0BD
:102DC000BDE8F08F202CF0D0099A3AB104F15802F6
:102DD0006A442D2102F8201C0134E6E7710704D56E
:102DE00004F158026A442B21F4E73207DDD504F1DF
:102DF00058026A442021EDE70000000065CDCD4176
:102E00000000000065CDCDC10A8000080E800008DA
:102E1000FFFFEF7F0180000806800008188000088F
:102E20000000E03F2DE9F04F91B09B460B1E0A9346
:102E3000AC4B1A9E904614BF8146994600249BF8DD
:102E4000000060B944450A992CBF08F1FF322246C0
:102E500043460020C847204611B0BDE8F08F252822
:102E60000BF1010B06D022460A99651C4346C84760
:102E70002C46E4E700230DE02D2A2AD0302A06D084
:102E8000303A092A4FF0000711D80A2532E043F002
:102E900001038B46594611F8012B2B2A1CD0EBD885
:102EA000202A1CD0232A1DD02A2A2BD000279BF8A9
:102EB00000202E2A64D19BF80110A1F130000928CE
:102EC0000BF1010243F4806351D800254FF00A0C46
:102ED00026E043F00203DCE743F00403D9E743F0C4
:102EE0000803D6E743F01003D3E705FB0722A2F15E
:102EF00030078B46594611F8012BA2F13000092802
:102F0000F3D9D4E756F8047B002FBCBF43F002038B
:102F10007F428B46CBE70CFB0511A1F13005024641
:102F2000104610F8011BA1F1300EBEF1090FF2D9C5
:102F3000114611F8010B6C282CD024D8682830D009
:102F40006A2837D011468B461BF8010B672875D8C5
:102F500057284BD8452807D085D9462800F031811D
:102F6000472880D143F4006343F0200341E12A293C
:102F700007D156F8045B0BF1020225EAE575D7E7A5
:102F80005A460025D4E7742801D07A28DAD143F4D0
:102F90008073D8E750786C28F9D143F44073911CC2
:102FA000D1E75078682802D043F08003CBE743F0A4
:102FB000C003F4E743F40073C5E70A2A00F0668112
:102FC000072A7FF450AF43F0210305930823CDE98E
:102FD00003531023CDE9011356F8043B00930A99DB
:102FE000434622464846FFF734FBFCE0A0F1580276
:102FF0000F2A3FF638AF01A151F822F06D300008DA
:10300000672E0008672E0008672E0008672E00084C
:10301000672E0008672E0008672E0008672E00083C
:10302000672E00086D300008153200086D3000086A
:10303000EB310008C7310008EB310008A0F169024C
:10304000D2B20F2A3FF60FAF0121914049F2410C55
:1030500011EA0C01B1D0782803F4806122D1002953
:1030600000F0908023F00D02102307E0622803F4A3
:10307000806220D142BB23F00C02022312F40071C3
:1030800000F08380CDE907720022CDE9043206F119
:10309000070A2AF0070A06950292FAE80223CDE908
:1030A00000233DE06F2812D123F00C0209B123F078
:1030B0000D020823E2E7582816D1002A39D123F05F
:1030C0000C0242F02002CFE723F00D02D5E7692879
:1030D00023F0100230D023F01C0209B123F01D02AE
:1030E0000A23CBE79124000842BB23F0100293058A
:1030F00027D5073626F00706B24676685AF8083B09
:103100000695CDE907720A20F20F0021002ECDE9C5
:103110000401029202DA5B4266EB4606CDE9003614
:103120000A99434622464846FFF7D6FA04465646D1
:1031300085E623F00D02C4E70029D8D023F0110260
:10314000D5E7D00506F1040A01D5336802E051063F
:1031500013D533780395CDE904720A220292002B2D
:103160004FEAD3720192B8BF5B4200930A9943467B
:1031700022464846FFF76DFAD8E71306E5D5B6F9BB
:103180000030E7E723F00C026EE7D00506F1040AF1
:1031900006D5CDE90472CDE9023501913368E4E743
:1031A000510608D53178CDE902350023CDE9047206
:1031B000CDE90013DAE7316812F0800F18BF89B249
:1031C000F1E743F02003CDE90373073626F0070645
:1031D0000295F6E802230A99CDE9002348464346C2
:1031E0002246FFF791FC044629E6672801D143F403
:1031F0000063CDE90373073626F007060295F6E86B
:1032000002230A99CDE90023484643462246FFF7A8
:10321000B3FAE8E713F0020523D04FF0010A631C6C
:103220000B930A9916F8040B43462246C8475DB330
:103230000B9A54461EE00A9943462020C8470AEBE1
:1032400004020AF1010A5745F5D8002F07F1FF33B0
:1032500008BF002307F1010A1C4408BF4FF0020A0F
:10326000DDE7AA46EBE7551C0A9943462020C847EC
:1032700001342A46BC42F6D30B9AA7EB0A03574502
:1032800038BF00231A440B920B9CD8E53246002D20
:1032900052F8046B0B9214BF29464FF0FF313144B2
:1032A0003246107808B18A4211D1A2EB060A13F413
:1032B00080620C9202D0AA4528BFAA4613F00203EE
:1032C0000D931BD1AAEB040322460F9308E00132B1
:1032D000E7E7531C0E930A9943462020C8470E9AED
:1032E0000F9BD3189F42F4D8A7EB0A03574538BF6A
:1032F00000230AF101021C4403EB020AA31B0E93F4
:1033000004E01D460A9943462246C8470E9BF4181E
:1033100016F8010B28B10C9B002BF3D06B1E002D6F
:10332000EFD10D9B93B12246AAEB040505E0561C94
:103330000A9943462020C847324653199F42F6D87F
:10334000A7EB0A03574538BF00231C440B9E76E5C4
:103350000EB40FB505AA014652F8043B0392009241
:1033600004484FF0FF32FFF75DFD04B05DF804EB59
:1033700003B07047892400080CB41FB506AC0A4698
:1033800054F8043B0094014604480394FFF74AFDB7
:1033900004B0BDE8104002B0704700BF89240008A7
:1033A000002208214FF0904001F0A4BC07B5002294
:1033B0008DF8070004214FF0904001F09BFC4FF086
:1033C000FF3301220DF10701024803F0E6FC03B0D0
:1033D0005DF804FB3802002070B5012204460D465A
:1033E0004FF09040042101F085FCAAB22146034829
:1033F000BDE870404FF0FF3303F0CFBC380200202F
:10340000F8B5054615F8016B06B9F8BD2C4614F859
:10341000020BFFF7CBFF6D7815F07F0704D0204635
:103420003946FFF7D9FF3C442B0607D514F8010BAA
:10343000FF2808BF4FF4FA7000F0C4FE013EF6B258
:103440002546E1E7F7B507462A2016460D461C46F5
:10345000FFF7ACFF042100230DEB0100013701361B
:103460008DF804308DF806308DF805708DF8076002
:10347000FFF7B2FF2B20FFF799FF04210DEB0100AE
:103480001A351A348DF805508DF80740FFF7A4FF60
:103490002C20FFF78BFF03B0F0BD012208214FF075
:1034A000904001F027BC0000F7B51C468318A02B04
:1034B000154601EB0403C4BFC0F1A005ADB2502B0B
:1034C000C8BFC1F150040F460646C8BFA4B2FFF7FB
:1034D00067FFF9B2F0B24B1E421E23442A44DBB20E
:1034E000D2B2FFF7AFFFBDF820300F4F5BBA012219
:1034F00004214FF09040ADF8043001F0FBFB8CB993
:10350000FFF7CBFF03B0F0BD4FF0FF33022201A95C
:10351000384603F042FC013EB6B2002EF4D1013C25
:10352000A4B2ECE72E46F8E73802002008B5FFF712
:1035300037FF002202214FF0904001F0DBFB052015
:1035400000F040FE012202214FF0904001F0D2FB3A
:103550000648FFF755FF0648FFF752FF0548FFF7FB
:103560004FFFBDE80840FFF798BF00BFA2800008EA
:10357000938000086880000882B02DE9F04F87B082
:103580001646BDF84C200192BDF850201193044618
:1035900088460292DFB2C3F30725FFF701FF16F852
:1035A00001ABBAF1000F05D107B0BDE8F04F02B092
:1035B000FFF773BFE3199F2B0CDD05EB08031FFA20
:1035C00083F815FA83F34F2BEEDCBAF1200F4FF09E
:1035D0000004E4D06B1E7A1E53FA88F352FA84F288
:1035E000DBB2D2B25FFA88F1E0B2DDF84890FFF7C3
:1035F00029FF029BAAF1200A05FB0AFA5BBA09EB34
:103600004A09ADF80E304FF0000A554502D83C4447
:10361000A4B2C4E739F8023B00934FF0000BBB455E
:1036200002D30AF1010AF0E7009B03FA0BF10B0445
:103630000AD5019B59BAADF81410022105A8FFF76D
:10364000CBFE0BF1010BEAE7BDF80E30ADF81430FC
:10365000F3E707B5002100905023A0220846FFF7AA
:1036600023FF03B05DF804FB10B5022386B01446B7
:103670004FF0FF32CDE9013205AB00930A4601233A
:10368000802101F0ABFD18B9BDF814305BBA23807E
:1036900006B010BDF0B587B042F2417302264FF07C
:1036A000FF3705ADADF81430CDE901670095012372
:1036B00000228021044601F0B7FC78B9084B094A82
:1036C0001A6048F64113ADF81430CDE90167009552
:1036D000012305228021204601F0A6FC07B0F0BDA1
:1036E0005C2F00200000A03937B50D460DF1060211
:1036F0000221FFF7B9FF044638B9BDF80600FDF70F
:10370000F3FB0349FCF7E8FD2860204603B030BD19
:103710000AD7A33A37B50D460DF106020421FFF78B
:10372000A3FF044640B9BDF90600FDF7E1FB044BD9
:103730001968FCF7D1FD2860204603B030BD00BFFA
:103740005C2F00200D488546FEF735F90C480D49E1
:103750000D4A002302E0D458C4500433C4188C42EC
:10376000F9D30A4A0A4C002301E013600432A24252
:10377000FBD304F0CFF9FDF795FCFEE700800020B5
:1037800000000020C401002018A90008C401002086
:1037900000310020FEE710B580210446FDF7FAFE57
:1037A00020460021BDE81040FDF7F4BE37B50B7888
:1037B00003F06003202B04460D4611D0402B0FD0A0
:1037C0006BBB4B78092B2AD8DFE813F0F600110108
:1037D00029000A0129008E0013002900DE00AA003A
:1037E000D4F8B43229469B6820469847002003B09D
:1037F00030BD0023ADF806304B881A0A013A0E2A74
:103800000DD8DFE802F010222F0C0C4F590C0C0CD5
:103810000C0C0C0C0800D0F8B032DB6933B9204630
:10382000FFF7B9FFE2E7D0F8B0321B68207C0DF15A
:1038300006019847BDF80620EB88002A50D0002BDF
:1038400045D1204600F0EAF9D0E7027CD0F8B43246
:1038500032B99B6A0DF10600984702234370E9E7ED
:10386000DB6AF7E7DBB2052BD9D8DFE803F0030703
:103870000B0F1317D0F8B0325B68CFE7D0F8B03237
:103880009B68CBE7D0F8B032DB68C7E7D0F8B0323E
:103890001B69C3E7D0F8B0325B69BFE7D0F8B0323C
:1038A0009B69BBE7037C002BB9D1D0F8B4320DF192
:1038B00006005B6B9847BDE7037C002BAFD1D0F8C7
:1038C000B4320DF106001B6B98470723C6E79A42F6
:1038D00028BF1A4601462046ADF8062000F074F9CC
:1038E000EB88002B82D1ACE78B88002B97D1CB885B
:1038F000002B94D14D887F2D91D890F89C32032BCA
:103900008DD0E9B280F89E12FDF768FE204600F0E7
:1039100085F91DB1022384F89C3267E70123FAE799
:103920008978394D012929703FF679AF90F89C329A
:10393000022B08D0032B15D0FFF72DFF2978204646
:1039400000F0B0F952E700293FF47BAF01210323D7
:10395000416080F89C32204600F097F902287FF4FD
:1039600070AF5CE731B9022380F89C32416000F00F
:1039700099F966E7416801293FF463AFC9B200F0E5
:1039800091F929786160E6E7CA88012A7FF447AF98
:1039900090F89C32022B0AD8002B3FF440AF01462E
:1039A000002341F8083F204600F00EF91EE7032BE4
:1039B0007FF435AF011DF6E790F89C32013B022BF6
:1039C0003FF62DAFCA88022A7FF429AFD0F8A4327F
:1039D0000146002B0CBF0123032341F80C3FE2E713
:1039E0004B88012B7FF402AFC4F8A43229E790F88A
:1039F0009C32013B022B3FF612AF4B88012B7FF428
:103A0000F5AE0023F0E700BF602F002038B50B783B
:103A100003F060025B0604460D4601D5402A15D12D
:103A200094F89C32013B022B10D82B79012B0DD836
:103A3000D4F8B43229469B6820469847EB881BB9D6
:103A400010B9204600F0EAF8002038BD2046FFF704
:103A5000A2FEF9E738B50A788D8802F06002202AC4
:103A600004460B4627D0402A25D092BB5A78012A1B
:103A7000E9B23ED0032A26D05ABB90F89C32022BE2
:103A80004ED0032B25D101F00F03142215F0800F27
:103A900002FB030353D09B69DBB101F07F050135C5
:103AA00005EB850500EB85054B0654D100232B6003
:103AB000022229463FE0D4F8B422194692682046F3
:103AC0009047002038BD90F89C22022A1FD0032A7C
:103AD00003D02046FFF75FFEF3E75A882AB94A066B
:103AE00003D0DB880BB9FDF755FD204600F096F8B2
:103AF000E7E790F89C22022A09D0032AE9D15B88E3
:103B0000002BDED14D06F0D0FDF74DFDEDE74B0665
:103B1000DFD0FDF73FFD80212046FDF73BFDD0E7DC
:103B20004906D6D12A064CBF00F1140100F5AA714E
:103B300000230B600222204600F046F8C1E7D3F8CC
:103B40005831002BC5D001F07F05142303FB050578
:103B500005F5AA75A8E72046FDF72EFD0028A5D09B
:103B60000123A4E70B7803704B7843704B884380A4
:103B70008B888380CB88C380704710B58021044632
:103B8000FDF708FD20460021BDE81040FDF702BD0D
:103B900070B50D461646044670B1FCF731FBC3B252
:103BA00001335B0033802B7003236B70013C0223D5
:103BB000002014F8011F01B970BD5A1CD2B2E9549B
:103BC0000233A854DBB2F4E710B513460222C0E971
:103BD0000733C0F894220A460021FDF708FD0020B3
:103BE00010BD08B513460A460021FDF700FD002070
:103BF00008BD10B513460322C0E95733C0F894221C
:103C00000A460021FDF7FCFC002010BD08B5134654
:103C10000A460021FDF7F4FC002008BD08B5042386
:103C2000C0F8943200231A461946FDF7E0FC002044
:103C300008BD08B50523C0F8943200231A4619467A
:103C4000FDF7DEFC002008BD08B580B1D0F8B43225
:103C500013B10023C0F8B43209B1C0F8B012012387
:103C600080F89C320270FDF739FC002008BD02206C
:103C7000FCE719B1C0F8B412002070470220704769
:103C800008B5FDF769FC002008BD08B5D0F8B432CE
:103C900033B11B689847003818BF0120400008BDA9
:103CA0000220FCE708B5D0F8B4325B6898470020E2
:103CB00008BD38B5044600F52A752846FFF752FFBF
:103CC000012394F8A812C4F89432B4F8AE32C4F8C0
:103CD000983201F01F03012B08D0022B0BD07BB9C7
:103CE00029462046FFF762FD002038BD29462046C0
:103CF000FFF78CFEF8E729462046FFF7ABFEF3E717
:103D000001F080012046FDF745FCEDE770B5044663
:103D1000164639BBD0F89422032A1CD1D0E9585258
:103D200095420BD9AD1AAA42C0F860518CBFAAB215
:103D300092B23146FFF76AFF002070BDD0F8B4326E
:103D40001B6923B190F89C22032A00D19847204692
:103D5000FFF764FFF0E7052AEED1C4F89412FDF7EF
:103D600019FCE9E7D0F8B4329B692BB190F89C229A
:103D7000032A01D19847DFE70220DEE7F8B50446C1
:103D800013460F46002949D1D0F89422022A3AD18D
:103D9000D0E90856B54211D9AD1B19460562AAB241
:103DA000FFF71FFF3B461A4619462046FDF728FC41
:103DB00094F8A032012B2DD00020F8BDC369B3FBCD
:103DC000F6F506FB153565B99E420AD8D0F898225B
:103DD000934206D22A46FFF704FFC4F898522B46B6
:103DE000E1E7D4F8B432DB682BB194F89C22032AC3
:103DF00001D12046984780212046FDF7CBFB204685
:103E0000FFF717FFD4E732F00403D1D18021FDF78B
:103E1000C1FBCDE7002384F8A032CDE7D0F8B4325F
:103E20005B692BB190F89C22032A01D19847C3E724
:103E30000220C2E770B50022044611460125402643
:103E40004023FDF792FB33468021C4F85851C4F853
:103E5000646100222046FDF788FBD4F8B832A561E2
:103E60000021666284F89C52C4F894126160C4F820
:103E7000A41223B1D4F8B43220465B6898470020DE
:103E800070BD01740020704790F89C3280F89D321C
:103E9000042380F89C320020704790F89C32042B59
:103EA00004BF90F89D3280F89C320020704708B51E
:103EB00090F89C22032A04D1D0F8B432DB6903B114
:103EC0009847002008BDD0F8BC3210B56BB1D0F8CF
:103ED000B84294F84000FF2807D09B6894F841202E
:103EE00021469847FF2384F84030002010BD000091
:103EF0004323038000487047CC0000204323038005
:103F00000048704710010020432303800048704799
:103F1000880000200A230380004870478C0100209D
:103F200038B50446D0F8B852FDF773FBD4F8B83270
:103F3000E86443B1D4F8BC32686CDB6805F14C012D
:103F40009847002038BD0220FCE770B5D0F8B86271
:103F5000BEB1142202FB0102D0F8C052D3696BB18A
:103F600005EB4114A46BB3FBF4F504FB15332BB93B
:103F7000D3611A46FDF73BFB002070BD002373653B
:103F8000FAE70220F9E7F7B50F78D0F8B862002316
:103F90008DF80530ADF8063017F0600304460D4685
:103FA00022D0202B3AD1CA884B78BAB139060BD52A
:103FB000D0F8BC1218468F683146B847EA883146B7
:103FC0002046FFF701FE06E086F8403086F84120E3
:103FD0003146FFF70EFE002003B0F0BDD0F8BC0262
:103FE00084681846A047F6E74B780A2B0AD00B2BBB
:103FF00010D09BB990F89C32032B0FD102220DF107
:104000000601DEE790F89C32032B07D101220DF167
:104010000501D6E790F89C32032BDCD020462946D8
:10402000FFF7ABFD0220D7E738B504460025812114
:10403000FDF7A7FA0121E5622046FDF7A2FAC4F8D0
:104040006C5182212046FDF79CFAD4F8B8322564E1
:104050004BB1D4F8BC325B689847D4F8B802FDF78E
:1040600003FBC4F8B852002038BD70B504460125E2
:10407000402302228121FDF778FA402302222946BB
:10408000E5622046FDF771FA082303228221C4F875
:104090006C512046FDF769FA25645C20FDF7E0FAD3
:1040A0000646C4F8B80270B1D4F8BC321B68984711
:1040B00000237365726CB365294640232046FDF7E3
:1040C0009FFA002070BD2846FCE719B1C0F8BC1269
:1040D0000020704702207047D0F8B8320020996461
:1040E0001A657047D0F8B832002059647047D0F88C
:1040F000B82210B562B1546D01235CB95365136DDC
:104100000363926C9BB28121FDF771FA204610BDCA
:104110000220FCE71846FAE7D0F8B82208B532B119
:10412000526C40230121FDF76BFA002008BD0220EC
:10413000FCE7704738B50F4B1A6805460AB90120ED
:1041400038BD4FF47A73B3FBF2F30B4A1068B0FB3F
:10415000F3F000F09DF804460028F0D10F2DEED8C2
:10416000024629464FF0FF3000F052F8034B20463C
:104170001D60E5E798010020640000209C010020FC
:1041800010B5032000F032F80020FFF7D3FF0446FB
:1041900018B9FFF7CEFF204610BD0124FBE7000051
:1041A000034A0449136809680B441360704700BF51
:1041B000642F002098010020014B1868704700BF51
:1041C000642F002038B50446FFF7F6FF631C1CBFC0
:1041D000054B1B68054618BFE418FFF7EDFF431BAE
:1041E000A342FAD338BD00BF980100200749CA682E
:1041F00022F4E0620302120403F4E063120C13439E
:1042000043F0BF6343F40033CB60704700ED00E040
:10421000164B30B5DC68C4F30224C4F10703251D36
:10422000042B28BF0423062D4FF0FF358CBF033C21
:10423000002405FA03F321EA0303A54022EA05025C
:10424000A340002843EA0203ACBF00F16040084AE3
:104250004FEA0313B8BF00F00F00DBB2AABF00F5AE
:104260006140135480F8003330BD00BF00ED00E022
:1042700014ED00E0002807DB044A4109012300F0A7
:104280001F00834042F82130704700BF00E100E08A
:104290000138B0F1807F0BD24FF0E023054A58611E
:1042A000F02182F823100020072298611A617047DC
:1042B0000120704700ED00E0704708B5FFF7FCFFF4
:1042C00008BD704738B50446002800F0BA8090F861
:1042D0005C3003F0FF021BB980F85D20FFF7F1FFAF
:1042E0002268936923F010039361FFF765FF054689
:1042F00023689A69110700F197809A6942F00102D8
:104300009A61FFF759FF054623689A69D20740F181
:104310009A809A6942F002029A61574A934204BF16
:104320006168C2F80011227C012A9A690CBF22F050
:10433000400242F040029A61627C012A9A690CBFF5
:1043400042F4804222F480429A61A27C012A9A6956
:104350000CBF22F4805242F480529A619A69A0689C
:1043600022F4407202439A619A6922F0A4029A618F
:104370001A6922F010021A61E268012A6AD19A6968
:1043800042F004029A61A269511EE269013A1202E6
:1043900042EA4162216A01390A436169013942EA0C
:1043A0000142B0F5407FDA610ED1E26A511E226B04
:1043B000013A120142EA0122A16A01390A43616A03
:1043C000013942EA0142DA60D3F8C020E16B2B48A0
:1043D0000A43C3F8C020D3F88020616B206422F424
:1043E000F81242EA0142C3F88020254A6264D3F8F9
:1043F0008020A16B22F0706242EA0162C3F8802043
:10440000204BA364D833E364D83323651833636542
:104410004FF45472002103F02BFB0020012320668F
:10442000A06584F85C300DE0FFF7C6FE401B0A284B
:104430007FF65EAF236E43F001032366032384F807
:104440005C30012038BDFFF7B7FE401B0A287FF61D
:104450005BAFEFE7002A96D0022A09D0996941F0B4
:10446000800199611969032A41F0100119618AD10B
:104470009A6942F0200285E70064004000A40040F1
:1044800070A40040B0A4004090F85C30012B0BD128
:104490000268022380F85C30936923F00103936182
:1044A0000023036618467047036E43F00403036657
:1044B0000120704790F85C20022A034628D1026848
:1044C000916941F0010191610C219069C00711D5FA
:1044D000916921F0100191610C21906910F00800A0
:1044E00013D1916941F0020191610122986583F82D
:1044F0005C2070470139E8D11A6E42F001021A6659
:10450000032283F85C20012070470139E5D1F3E7ED
:10451000026E42F008020266F5E700002DE9F04362
:1045200090F85C30022B91465AD10668D6F8C44008
:1045300014F4001405D0036E43F4007303660120E5
:1045400032E0D1E90032D6F8C450D1F810C08F68FB
:10455000C5F3014552BB47EA0C0E4EEA834CD1E944
:1045600006733B434F69D0F854803B430F6A43EADC
:104570000763CF6843EA074348276F4307EB080EFA
:1045800047F808C0184FCEF804304A460EF1080E1E
:10459000CB68FB5C9C4202F104020ED30123AB40CA
:1045A000C6F8CC3083650020BDE8F08343EA0C0CEC
:1045B0004CEA070C4CF0804CD1E712F8023C12F8A0
:1045C00001CC1B0443EA0C6312F804CC43EA0C034D
:1045D00012F803CC43EA0C234EF804300434D7E736
:1045E000036E43F00803A9E7F2A80008F0B590F8BD
:1045F0005C40022C77D14029046856D1D4F8905001
:104600002D0705D1036E43F4807303660120F0BDCE
:10461000D4F89050EF01C5F3006648BFD4F880602D
:10462000D4F89050846C48BFC6F34026C5F30125EA
:104630003544482606FB0544276807F08047576045
:104640002668002F47D1C6F38A4616602668DFF831
:10465000A0C006F000569660266806F00046166177
:10466000A688D661E68806F00F06D660666806F46E
:1046700080165661666806F400169661E67906F0C3
:104680007F0616626668F60F566207340026D76802
:104690001CF80770B74221D8036840290CBFC3F843
:1046A0009450C3F89C500020B1E7D4F898502E07DE
:1046B000A8D0D4F89850C5F30066ED0148BFD4F8EF
:1046C0008060D4F89850C46C48BFC6F30026C5F388
:1046D00001253544ADE726F06046B6E714F8017FC2
:1046E0009F550136D3E7036E43F008038DE700BF03
:1046F000F2A80008036840290CBFD3F89000D3F853
:10470000980000F00F0070470368D3F8C40000F071
:1047100007007047064B5A69002ABFBF054A9A60D6
:1047200002F188329A60BABF5869C00F0020704702
:104730000020024023016745044B5A6942F00042C1
:104740005A615869C043C00F704700BF0020024043
:10475000064B586910F0804007D0054ADA6002F134
:104760004432DA605869C0F380707047002002401C
:104770003B2A1908054B5A6942F080425A61586930
:1047800080F08040C0F38070704700BF002002407E
:1047900070B50646FFF710FD0F4C05462369DA0396
:1047A0000BD423694CF2FA3213400DD00B494A68FE
:1047B0001A434A600120236170BDFFF7FDFC401BD6
:1047C000B042EBD90320F7E72369DB0744BF01239D
:1047D00023610020F0E700BF00200240A00100207C
:1047E0002DE9F843DFF8A88298F80030012B044641
:1047F00000F04C810127002388F80070C8F80430CD
:1048000003683B4066D0D0E90195C6684FF47A70E2
:10481000FFF7BEFF88B99F4BB9F1000F53D145EAAE
:104820000645DD625A6942F400325A614FF47A70EB
:10483000FFF7AEFF071E18BF012723689D0707D5A6
:104840004FF47A702569FFF7A3FF002844D00127B1
:104850002368580708D54FF47A70D4E90565FFF747
:1048600097FF002849D00127236818070CD5D4E901
:104870000896B14508D04FF47A70E569FFF788FFD4
:10488000002800F0B780012723689A0609D54FF465
:104890007A70D4E90B65FFF77BFF002800F0D08029
:1048A00001272368DB0608D54FF47A70A46AFFF766
:1048B0006FFF002800F0D8800127002388F800301F
:1048C0003846BDE8F883B9F1010F04BF45EA064553
:1048D0001D63A7E71F46B0E76E4A136A23F0FF0384
:1048E0002B431362536943F4003353614FF47A70DE
:1048F000FFF74EFF0028ABD0A9E716F001030EBF6B
:104900001A4605F4E0634FF4E062B10742BF05F4D4
:1049100080510B4342F48052700742BF05F40051AE
:104920000B4342F40052F10442BF05F480410B43B3
:1049300042F48042300742BF05F480310B4342F419
:104940008032F10642BF05F400310B4342F40032DD
:10495000B00642BF05F480210B4342F48022710669
:1049600042BF05F400210B4342F40022B00542BFD0
:1049700005F400010B4342F40002710542BF05F04B
:1049800080710B4342F08072300542BF05F0007128
:104990000B4342F00072B10442BF05F080610B434B
:1049A00042F08062700444BF05F000610B43394857
:1049B00048BF42F00062310442BF05F040510B4352
:1049C00042F04052016AF60342BF05F0804542F0D2
:1049D00080422B4321EA020213430362436943F4FA
:1049E000003343614FF47A70FFF7D2FE00283FF4A2
:1049F0003BAF38E7E9070FD5264A2749536A09F143
:104A000078490B4043EAD9035362936A06F178462A
:104A10000B4043EAD60393621E4A936A05F00045B1
:104A200023F000432B439362536943F400335361F3
:104A30004FF47A70FFF7ACFE00283FF425AF22E771
:104A4000144A012E01BF136F23F07F032B4313671A
:104A5000536943F4003353614FF47A70FFF798FEC3
:104A600000283FF41EAF1BE70A4A136F23F480337C
:104A700023431367536943F4003353614FF47A704F
:104A8000FFF786FE00283FF418AF15E7022717E767
:104A9000A00100200020024000C0FFFF4268062362
:104AA000012A03600CD807230360264B002A43D158
:104AB000DA6A02F03F028260DB6AC3F30543C36037
:104AC000204A136ADBB2AA2B03D0CC2B0CBFCC2319
:104AD000BB230361136A23F0FF038361C369012BC6
:104AE00016D1036843F008030360516A164B03EACA
:104AF000C10101F100610162916A03EAC10303F19E
:104B000000634362936A03F0004343F00103C3610F
:104B100003680C4943F0100202600A6F02F480320D
:104B20008262C26A012A06D143F0300303600B6F30
:104B300003F07F03036370471A6B02F03F02826049
:104B40001B6BBAE700200240F8FF01002DE9F74F88
:104B5000DFF89481654C00230A6832FA03F502D12C
:104B600003B0BDE8F08F012505FA03F919EA020246
:104B700000F08A804E68032706F003054FEA430ED3
:104B800007FA0EFC6F1E012F6FEA0C0C7ED88768A7
:104B900007EA0C0ACF6807FA0EF747EA0A078760A8
:104BA000476827EA0909C6F300179F4047EA090743
:104BB0004760C76807EA0C098F6807FA0EF747EAEB
:104BC0000907022DC7606DD0076805FA0EF507EAE0
:104BD0000C073D4316F4403F056055D0D8F86050AF
:104BE00045F00105C8F86050D8F8605023F003077D
:104BF00007F1804705F0010507F58037019503F0BF
:104C0000030C019DBD684FEA8C0C4FF00F0E0EFA9D
:104C10000CFEB0F1904F25EA0E0E5BD0344DA84249
:104C20005AD005F58065A84258D005F58065A842A0
:104C300056D005F58065A84254D005F58065A84298
:104C400014BF0625052505FA0CF545EA0E05BD60DD
:104C5000A568D74316F4801F0CBF3D401543A560DF
:104C6000E56816F4001F0CBF3D401543E56065681C
:104C700016F4003F0CBF3D40154365602568F60300
:104C800054BF3D4015432560013365E7032D9BD09C
:104C9000C76807EA0C098F6807FA0EF747EA0907A1
:104CA000C76091E74FEAD30900EB890903F0070ACF
:104CB000D9F820704FEA8A0A4FF00F0B0BFA0AFB63
:104CC00027EA0B0B0F6907FA0AF747EA0B07C9F83F
:104CD000207079E70025B6E70125B4E70225B2E7A1
:104CE0000325B0E70425AEE70010024000040140B0
:104CF000000400480AB1816170478162704703680F
:104D00009A69910744BF00229A629A69D2075EBFEE
:104D10009A6942F001029A617047000030B5039D24
:104D200004682B4343EA0243064A6068C1F3090161
:104D30000B4342EA555223F0004320EA02000343AA
:104D4000636030BDFF63FF0303682DE9F0419C6998
:104D500014F0100405460F4616466CD010220024AD
:104D6000DA61A0462B689A69920660D4B8F1000F08
:104D70002ED044F0040401202E68B36913F4807F20
:104D800003F4806203F4007357D04FF4807144F051
:104D90000104F161002A51D1002B56D12846FFF7BA
:104DA000AEFF736823F0FF7323F48B3323F4FF7398
:104DB00023F0010373606B6C23436B64202385F83D
:104DC0004130002385F8423085F84030012044E02E
:104DD0007A1C05D19A699606FCD52022DA61C8E7CB
:104DE000FFF7EAF9801BB84201D8002FBAD12B682F
:104DF000596895F8422098690004D2B20AD548044F
:104E000008D4202A06D05A6842F480425A60FFF73C
:104E1000D3F906462B689B699906A3D4FFF7CCF912
:104E2000801B1928F6D920244FF001089AE7B8F121
:104E3000000F9ED1D1E720469EE72AB14FF4806251
:104E400044F00804F261A7E72BB14FF4007344F07B
:104E50000204F361A2E70028A0D1BDE8F08170B59B
:104E600004460D46164623689B699B0701D5002022
:104E70001FE0324629462046FFF766FFC0B96A1C8C
:104E8000F1D0FFF799F9801BA84201D8002DEAD193
:104E900023689B6913F00203E5D1626C84F840300B
:104EA00042F020026264202284F8412084F84230DB
:104EB000012070BD2DE9F041DDF8188004460F4651
:104EC00016461D4623689B6937EA03030CBF01237E
:104ED0000023B34201D0002025E042462946204667
:104EE000FFF732FFF0B96B1CECD0FFF765F9A0EBD0
:104EF0000800A84201D8002DE4D123689B6937EA55
:104F000003030CBF01230023B342DBD1636C43F0E6
:104F100020036364202384F84130002384F8423066
:104F200084F840300120BDE8F08170B504460D469C
:104F3000164623689B699B0601D500201DE032467A
:104F400029462046FFF700FFB0B9FFF735F9801B6F
:104F5000A84201D8002DECD123689B6913F02003EF
:104F6000E7D1626C84F8403042F020026264202273
:104F700084F8412084F84230012070BD10B5044609
:104F800000284ED090F8413003F0FF021BB980F8A2
:104F90004020FCF78BFF242384F8413023681A68F3
:104FA00022F001021A60626822F070621A619A6847
:104FB00022F400429A60D4E90221012906D142F488
:104FC00000429A605A6822F4006207E042F4044208
:104FD00002299A60F6D15A6842F400625A605A680F
:104FE00042F0007242F400425A60DA6822F4004251
:104FF000DA60D4E904210A43A16942EA0122DA60B5
:10500000D4E907210A431A601A6842F001021A60C3
:1050100000202023606484F84130206384F842003B
:1050200010BD0120FCE700002DE9F74F994690F8EC
:105030004130BDF834A0DDF83880202B04460F46FF
:10504000164640F0C6800C9B13B1BAF1000F06D192
:105050004FF400736364012003B0BDE8F08F90F853
:105060004030012B00F0B5804FF0010B80F840B0CC
:10507000FFF7A2F81923054600905A464FF4004165
:105080002046FFF717FF0028E5D1212384F841309F
:10509000402384F842300C9B63624F4B6064606332
:1050A000A4F82AA05FFA89F20093394620464FF00F
:1050B0008073FFF733FE2A4641462046FFF7CFFEB6
:1050C00018BBB9F1010F236815D1F6B29E62002218
:1050D0000095434680212046FFF7ECFEA8B9638D7A
:1050E0009BB2FF2B15D8628D92B222854FF00073D0
:1050F0000090D2B212E0320A9A6241462A46204615
:10510000FFF7ADFE08B92368DFE7002384F84030DD
:10511000A1E7FF2222854FF0807300903946204698
:10512000FFF7FCFD2A4641462046FFF798FE00287F
:1051300091D1636A226813F8011B91626362638DE7
:10514000228D013B9BB26385638D013A92B29BB283
:105150002285B3B1AAB90095434680212046FFF7C6
:10516000A9FE00287FF477AF638D9BB2FF2B28D96F
:10517000FF2222854FF08073009039462046FFF7CA
:10518000CDFD638D9BB2002BCCD12A4641462046F3
:10519000FFF7CBFE00287FF45EAF23682021D961A2
:1051A0005A6822F0FF7222F48B3222F4FF7222F04E
:1051B00001025A6084F8411084F8400084F84200EB
:1051C0004AE7628D92B222854FF000730090D2B20E
:1051D000D3E7022040E700BF002000802DE9F74F11
:1051E000994690F84130BDF834A0DDF83880202B86
:1051F00004460F46164640F0C9800C9B13B1BAF125
:10520000000F06D14FF400736364012003B0BDE8C2
:10521000F08F90F84030012B00F0B8804FF0010B78
:1052200080F840B0FEF7C8FF1923009005465A46A3
:105230004FF400412046FFF73DFE03460028E4D12D
:10524000222284F84120402284F842200C9A626293
:105250004F4A60646063A4F82AA039460092204651
:105260005FFA89F2FFF75AFD2A4641462046FFF7CA
:10527000F6FD20BBB9F1010F236816D1F6B29E628C
:1052800000220095434640212046FFF713FEB0B9A7
:10529000638D9BB2FF2B3F4B15D8628D92B2228556
:1052A0000093D2B24FF0007312E0320A9A62414684
:1052B0002A462046FFF7D3FD08B92368DEE700231E
:1052C00084F84030A1E7FF22228500934FF08073DD
:1052D00039462046FFF722FD00954346002204216F
:1052E0002046FFF7E7FD00288FD123685A6A636ADA
:1052F0001A70636A228D01336362638D013B9BB236
:105300006385638D013A92B29BB22285B3B1AAB98B
:105310000095434680212046FFF7CCFD00287FF40E
:1053200074AF638D9BB2FF2B28D9FF2222854FF0EB
:105330008073009039462046FFF7F0FC638D9BB2E6
:10534000002BC9D12A4641462046FFF7EEFD002832
:105350007FF45BAF23682021D9615A6822F0FF7285
:1053600022F48B3222F4FF7222F001025A6084F898
:10537000411084F8400084F8420047E7628D92B201
:1053800022854FF000730090D2B2D3E702203DE7B0
:10539000002000800024008010B590F84120202AD1
:1053A0000346D4B21CD190F84020012A18D0242200
:1053B00080F841200268106820F001001060106839
:1053C00020F48050106010680143116011680020C3
:1053D00041F00101116083F8414083F8400010BDA5
:1053E0000220FCE710B590F84120202A0346D4B2F1
:1053F0001BD190F84020012A17D0242280F84120A8
:105400000268106820F001001060106820F47060DD
:1054100040EA012111601168002041F00101116092
:1054200083F8414083F8400010BD0220FCE770B5CE
:10543000044600284DD090F8913203F0FF021BB9CA
:1054400080F89022FBF7E0FF032384F89132206874
:1054500001F076FD0022257904F1100311460126A2
:10546000D0B2854203F1280317D8002104F5A873B0
:105470000A46C8B2854203F128031AD8D4E90112BA
:10548000206801F067FD00232373012384F8913223
:10549000A37A012B19D0002070BD43E9061103F84F
:1054A000276C03F8280C03F8251C43F8101C013264
:1054B000D6E743E9062203F8272C03F8280C03F863
:1054C000252C43F8102C0131D3E7204600F02CFEA8
:1054D000E1E70120E0E710B590F89032012B044697
:1054E0000CD0012380F89032006801F020FD206884
:1054F00001F0E8FF002084F8900210BD0220FCE7D4
:1055000010B590F89022012A04460AD0012280F8B2
:1055100090220173006801F0CFFF002084F8900210
:1055200010BD0220FCE700002DE9F84F044600689A
:1055300001F0D3FF10F4004500F02784DFF808A342
:105540004FF028082068B0F844301A0401D4BDE8B0
:10555000F88FB0F84450A9B215F00F0540F0BE80A6
:1055600011F0100126D103889BB203EA0A0343F429
:1055700000430380B0F85030227C00F2024010FA61
:1055800083F3204633F83230626AC3F309031A44C6
:10559000E3626262FBF767FF237B002BD2D0A26A33
:1055A0002168002ACED1237B43F08003A1F84C3040
:1055B0002273C7E70588ABB215F4006520D0B0F8B8
:1055C000503094F8502100F2064111FA83F304F5AB
:1055D000267133F83230B4F85621C3F30903C4F806
:1055E0006C3102F029FA2268138823F070031B053E
:1055F0001B0D43F0800313802046FBF725FFA1E736
:1056000019049FD5038823F070031B051B0D43F07D
:1056100080030380B0F8503094F8502100F2064126
:1056200011FA83F333F83230C3F30903C4F86C3151
:105630008BB1D4F8641171B1B4F8562102F0FCF9C1
:10564000D4F86431D4F86C211344C4F86431294689
:105650002046FBF7FFFE21680A8893B212053FF54A
:1056600071AF03F44053B3F5405F3FF46BAFB1F853
:10567000502001F2064092B2835AC3F309038352C9
:10568000D4F860313E2B1DD95D09DF06835A08BF6F
:1056900005F1FF359BB243EA85236FEA43436FEA86
:1056A00053439BB283520B8823F4804323F070034F
:1056B0001B041B0C83F4405343F4004343F080036A
:1056C0000B803FE70BB9835AE7E75D08DE07835A93
:1056D00048BF01359BB243EA8523E2E72EB230F89A
:1056E00026301A049FB240F1ED8030F8263023F0C6
:1056F00070031B051B0D43F0800320F8263008FBC8
:10570000054191F85C31BBB9B0F8503091F85021A7
:1057100000F2064C1CFA83F333F83290C9F30909FE
:10572000B9F1000F00F0B480B1F856214B46D1F822
:10573000641102F081F9ABE091F8533191F85021F6
:10574000022B40F08380B0F850E0D1F868314FEA86
:10575000C20910FA8EFE17F4804BCE4407F0400CBD
:1057600039D0BEF80294C9F3090999451FD8A3EBB3
:105770000903C1F86831EBB1BCF1000F0DD030F86E
:10578000223023F4E04323F070031B041B0C43F48A
:10579000004343F0C00320F82230B9F1000F77D066
:1057A000282101FB0541B1F858214B46BFE70023F2
:1057B000C1F8683130F8223023F4804323F07003BD
:1057C0001B041B0C83F4005343F4004343F0800399
:1057D00020F82230D0E7BEF80694C9F309099945AC
:1057E0001FD8A3EB0903C1F86831E3B1BCF1000F86
:1057F0000DD130F8223023F4E04323F070031B0472
:105800001B0C43F4004343F0C00320F82230B9F1ED
:10581000000F3DD0282101FB0541B1F85A214B462C
:1058200085E7C1F868B130F8223023F4804323F0D3
:1058300070031B041B0C83F4005343F4004343F038
:10584000800320F82230D1E70F8FFFFF30F822309D
:1058500023F4E04323F070031B041B0C43F40043C8
:1058600043F0C00320F8223091F8502130F8223064
:1058700013F4804FB0F8503058D000F2024C1CFAAC
:1058800083F333F83290C9F30909B9F1000F8AD1D3
:1058900008FB0543D3F86C214A44C3F86C21D3F8C4
:1058A00064214A44C3F86421D3F868211AB1D3F8BB
:1058B0006031994546D208FB0543204693F85011C4
:1058C000FBF7C8FD3B0620687FF53CAE30F826307C
:1058D0009BB203EA0A0343F4004320F8263008FB96
:1058E000054C9CF81330012B5FD105FB0883002287
:1058F000E2509CF81C30002B39D017F040079CF880
:1059000011303CD033BB9CF81020B0F8503000F27E
:10591000024010FA83F303EBC2031A88C2F30902B0
:105920001A801A8892B242F400421FE000F2064C3C
:105930001CFA83F333F83290C9F30909B9F1000F67
:10594000A6D06AE708FB0541206801F5A87101F0BF
:10595000D7FDB7E7012B0AD1B0F850309CF81010F2
:1059600000F2024010FA83F303EBC1031A802823EC
:1059700003FB0543197C2046FBF775FDE2E533B9CF
:10598000B0F850309CF8102000F20640C1E7012B1F
:10599000EDD1B0F850309CF8102000F2064010FA1B
:1059A00083F303EBC2031F80E1E706EB86069CF856
:1059B000101004EBC60317F4807B4FEAC6090A46B1
:1059C0009E6A4FEAC10E1DD1B0F8502010FA82F243
:1059D0007244B2F80254C5F30905B54202D3C3F8C4
:1059E00028B0C8E7761B9E62DCF824202A44CCF855
:1059F0002420DA6A09F110012A44DA62214401F014
:105A00007FFD9FE517F0400907F4804700F0DB8039
:105A1000B0F850E000F2024919FA8EFE3EF831E08B
:105A2000CEF3090EB64517D300269E629CF81130BE
:105A3000BFB2002B56D0012B78D1B0F8503019FAF4
:105A400083F323F83160B0F8503000F2064010FACA
:105A500083F323F8316069E0A6EB0E069E62002F07
:105A60007ED1282707FB054797F83410012940F01D
:105A7000EE80796A71447962DE6A7644DE623B6B5D
:105A80003E6AB3427BD39B1B3B63282303FB054346
:105A90005F7CB3B2002F40F08D80B0F8507019FADF
:105AA00087F73E2E37F832C0CCF3090C27F832C006
:105AB00070D94FEA561CF60637F8326008BF0CF171
:105AC000FF3CB6B246EA8C266FEA46466FEA564677
:105AD000B6B227F83260282202FB0542128B01F091
:105AE00000FDB4E0B0F8503019FA83F333F83160B8
:105AF000C6F3090623F8316033F83160B6B246F4D4
:105B0000004623F83160B0F8503000F2064010FA39
:105B100083F030F83130C3F3090320F8313030F826
:105B200031309BB243F4004320F831302046FBF77C
:105B30009AFC002F00F08B80282303FB054322688A
:105B4000197C32F8213023F4E04323F070031B0466
:105B50001B0C43F4404343F0800322F8213076E0ED
:105B600030F8211021F4E04121F070010904090C02
:105B700041F4404141F0800120F8221071E71BB947
:105B800087F83430764680E7002687F834603E6335
:105B90001E467AE716B937F8326095E74FEA560C99
:105BA000F60737F8326048BF0CF1010CB6B246EA8E
:105BB0008C268DE7012F02BFB0F8506019FA86F6E7
:105BC00026F8323087E7B0F850C000F2064E1EFAD1
:105BD0008CFC3CF831C0CCF3090CB4454DD9C3F86A
:105BE0002890BFB2282303FB05435B7C002B40F0C9
:105BF0009680B0F8506000F2024313FA86F636F849
:105C00003230C3F3090326F8323036F832306FEA07
:105C100043436FEA53439BB226F83230B0F850004A
:105C20001EFA80F030F83230C3F3090320F8323026
:105C300030F832306FEA43436FEA53439BB220F8A7
:105C400032302046FBF70FFC002F3FF475AF2823BE
:105C500003FB05452268297C32F8213023F4E04318
:105C600023F040031B041B0C83F0300343F4004378
:105C700043F0800322F8213064E4A6EB0C069E6218
:105C8000BFB2002EAED06FB930F8211021F4E04140
:105C900021F070010904090C41F4404141F08001F8
:105CA00020F82210282707FB054797F83410012910
:105CB000CDD1796A61447962DE6A6644DE623B6B0B
:105CC0003E6AB3423DD39B1B3B63282303FB054342
:105CD0005F7CB3B2002F4FD1B0F850701EFA87F737
:105CE0003E2E37F832C0CCF3090C27F832C033D936
:105CF0004FEA561CF60637F8326008BF0CF1FF3C3D
:105D0000B6B246EA8C266FEA46466FEA5646B6B207
:105D100027F83260282202FB0542528BDFE6012B76
:105D20008FD1B0F8503000F2024616FA83F3002605
:105D300023F83260B0F850301EFA83F323F8326053
:105D40007FE71BB987F834306646BEE700263E631E
:105D500087F834601E46B8E716B937F83260D2E7E4
:105D60004FEA560CF60737F8326048BF0CF1010CC9
:105D7000B6B246EA8C26CAE7012F02BFB0F85060DF
:105D80001EFA86F626F83230C4E7430511D522689C
:105D9000B2F8443023F480631B041B0C2046A2F8A5
:105DA0004430FBF76CFB29462046BDE8F84FFFF76F
:105DB000A7BB47040AD52268B2F8443023F48043D5
:105DC0001B041B0CA2F84430FFF7C1BB10F40051B8
:105DD00005D02268B2F8443023F40053F0E7C6043B
:105DE00022D52268B2F8403023F004031B041B0CB8
:105DF000A2F84030B2F8403023F008031B041B0C1B
:105E0000A2F8403094F8C832012B04D184F8C812AB
:105E10002046FBF703FC2046FBF752FB2268B2F852
:105E2000443023F48053CBE705051BD52268B2F834
:105E300040309BB243F00803A2F84030B2F844303F
:105E400023F400631B041B0CA2F84430B2F840306A
:105E50009BB243F00403A2F840302046FBF720FB3E
:105E6000FFF775BB01062AD52368B3F8442022F05A
:105E700080021204120CA3F8442094F8C822002ACD
:105E8000EBD1B3F8402092B242F00402A3F84020D4
:105E9000B3F8402092B242F008020121A3F840205A
:105EA00084F8C812B3F85430C3F38D0303F03C03F5
:105EB000C4F8CC322046BDE8F84FFBF7AFBB8205F3
:105EC0000DD52268B2F8443023F400731B041B0C78
:105ED000A2F844302046FBF7CEFAFFF738BBC305E3
:105EE0007FF535AB2268B2F8443023F4807367E75E
:105EF00070B501F0070606EB860411F0800F054629
:105F00004FEAC4044FF028001BD000FB065004F1F8
:105F10001001012429444474022BCB7004BF0023D8
:105F20000B710E700A6195F89032012B12D001238B
:105F3000286885F8903201F01FF8002085F890025B
:105F400070BD00FB065004F5A8710024294480F8B8
:105F50005141E1E70220F3E710B5044601F00700E4
:105F600000EB800311F0800F4FEAC3034FF02802CB
:105F700015D002FB004203F11001012321445374A8
:105F8000087094F89032012B12D00123206884F815
:105F9000903201F055F9002084F8900210BD02FB08
:105FA000004203F5A8710023214482F85131E7E74C
:105FB0000220F3E770B501F00701282606FB010473
:105FC000002584F85011C4E95923C4F86C5184F8B1
:105FD000515104F5A871006801F092FA284670BD8D
:105FE00001F00701282303FB0100D0F86C01704782
:105FF000F8B501F00706282404FB060406EB860129
:1060000000EBC1076262002501223946BB621031F4
:1060100084F8342023630068FD626274267401F002
:106020006FFA2846F8BD38B5037901F00705AB4291
:10603000044624D311F0800F4FF0280016D000FB47
:10604000054100FB054001231031437401238B708F
:106050000D7094F890229A4213D0206884F8903200
:1060600001F0C1F9002084F8900238BD00FB014323
:106070001A4603F5A871002382F85131E6E70120A2
:10608000F3E70220F1E738B5027901F00F039A42F5
:1060900004462BD301F0070000EB800311F0800FC2
:1060A0004FEAC3034FF0280217D002FB004203F16E
:1060B000100101232144537400258D70087094F859
:1060C0009032012B14D00123206884F8903201F023
:1060D000AAF984F89052284638BD02FB004203F525
:1060E000A8710023214482F85131E5E70120F3E74C
:1060F0000220F1E711F0800F18BF01F0070110B581
:106100004FF0280415BF04FB010004FB0100103010
:1061100000F5A87099B21AB90273C180002010BDB1
:10612000012202738360F9E7034601210268C0F887
:10613000D012002083F8C802B2F854309BB20B434F
:10614000A2F85430B2F854309BB243F00203A2F8E4
:1061500054307047284B1A6818BB02F4C062B2F57D
:10616000806FD3F8802022F48072C3F8802040D161
:106170001A6822F4C06242F400721A601F4A126860
:1061800032214A431E49B2FBF1F2013259694905F5
:1061900000D522B95B6958052BD503207047013A19
:1061A000F4E7B0F5007F1FD102F4C062B2F5806F52
:1061B000D3F8802042F48072C3F8802019D11A6885
:1061C00022F4C06242F400721A600C4A1268322152
:1061D0004A430B49B2FBF1F2013259694905D9D55D
:1061E000002AD7D0013AF8E722F4C06242F4806274
:1061F0001A600020704700BF00700040640000205B
:1062000040420F002DE9F341044618B9012002B0C5
:10621000BDE8F0810368D90714D423689A0758D4DD
:106220002368190700F1A18023685A0700F1C8808C
:1062300023689A0600F12F81E369002B40F05C810E
:106240000020E4E79F4DAB68EA6803F00C030C2BD9
:106250000AD102F00303032B08D12B689B03DCD582
:106260006368002BD9D1D1E7082BF5E76368B3F554
:10627000803F10D12B6843F480332B60FDF79CFFE7
:1062800006462B689F03C8D4FDF796FF801B642841
:10629000F7D90320BBE7B3F5A02F04D12B6843F453
:1062A00080232B60E6E72A6822F480322A602A687D
:1062B00022F480222A60002BE0D1FDF77DFF064604
:1062C0002B689903A9D5FDF777FF801B6428F7D9C0
:1062D000DFE77C4DAB68EA6803F00C030C2B17D1A9
:1062E00002F00303022B15D12B685A0502D5E3688F
:1062F000002B8BD06B68226923F0FE4343EA0263D4
:106300006B60714B1868FDF715FF002888D07DE79A
:10631000042BE8E7E368BBB12B6843F480732B6080
:10632000FDF74AFF06462B685B0507D56B682269B7
:1063300023F0FE4343EA02636B6071E7FDF73CFF25
:10634000801B0228EFD9A4E72B6823F480732B600D
:10635000FDF732FF06462B685F057FF561AFFDF75D
:106360002BFF801B0228F6D993E76369554D9BB13B
:10637000D5F8943043F00103C5F89430FDF71CFFC5
:106380000646D5F894309B073FF54EAFFDF714FF56
:10639000801B0228F5D97CE7D5F8943023F001035F
:1063A000C5F89430FDF708FF0646D5F894309F07EE
:1063B0007FF53AAFFDF700FF801B0228F5D968E7AB
:1063C000404DAB6DD80027D4AB6D43F08053AB6527
:1063D000AB6D03F080530193019B01273B4E336863
:1063E000D9051BD5A368012B29D1D5F8903043F0EE
:1063F0000103C5F89030FDF7DFFE41F2883806460C
:10640000D5F890309B0740D5002F3FF411AFAB6D0E
:1064100023F08053AB650BE70027DFE7336843F4D5
:1064200080733360FDF7C8FE80463368DA05D9D43F
:10643000FDF7C2FEA0EB08000228F6D929E7052BDC
:1064400006D1D5F8903043F00403C5F89030CCE77E
:10645000D5F8902022F00102C5F89020D5F89020C0
:1064600022F00402C5F89020002BC4D1FDF7A4FE51
:1064700041F288380646D5F890309907C4D5FDF723
:106480009BFE801B4045F6D903E7FDF795FE801B78
:106490004045B5D9FDE6A3690A4DCBB1D5F8983092
:1064A00043F00103C5F89830FDF786FE0646D5F89F
:1064B00098309B073FF5C0AEFDF77EFE801B02289B
:1064C000F5D9E6E6001002409C0100200070004073
:1064D000D5F8983023F00103C5F89830FDF76CFE2D
:1064E0000646D5F898309F077FF5A6AEFDF764FE07
:1064F000801B0228F5D9CCE6454DAA6802F00C02B3
:106500000C2A51D0022B2B6823F080732B603AD1D8
:10651000FDF752FE06462B6899012ED4EA683D4BE2
:106520001340226A1343A26A43EA0223E26A43EA5F
:10653000C263626A013A43EA0213226B5208013ACB
:1065400043EA4253626B5208013A43EA4263EB600A
:106550002B6843F080732B60EB6843F08073EB6033
:10656000FDF72AFE04462B689A013FF569AEFDF758
:1065700023FE001B0228F6D98BE6FDF71DFE801BCB
:106580000228C8D985E6FDF717FE04462B689B0153
:1065900004D4EA68204B1340EB6051E6FDF70CFE93
:1065A000001B0228F2D974E6012B3FF42FAEEB68F2
:1065B000226A03F0030191427FF428AE616A03F07E
:1065C000F0020139B2EB011F7FF420AEA16A03F49F
:1065D000FE42B2EB012F7FF419AEE16A03F078427C
:1065E000B2EBC16F7FF412AE226B520803F4C0010C
:1065F000013AB1EB425F7FF409AE626B5208013A97
:1066000003F0C063B3EB426F14BF01200020FEE52E
:10661000001002400C809F01FCFFEEFE134B9A68B5
:1066200002F00C02042A1DD09A6802F00C02082A1B
:1066300018D09A6802F00C020C2A15D1DA68D968D1
:10664000D868DB680A4AC3F34163C1F30311C0F39E
:106650000620013301315B00B2FBF1F25043B0FB85
:10666000F3F0704702487047002070470010024066
:106670000024F4002DE9F8430E46054610B9012028
:10668000BDE8F8836A4A136803F00F038B422CD3EA
:106690002A68D00734D4910765D4654C236803F089
:1066A0000F03B34200F2A7802A68624C12F0040F75
:1066B00040F0B780130706D5A3682A6923F4605316
:1066C00043EAC203A360FFF7A9FFA3685A4AC3F3D2
:1066D0000313D35C03F01F03D840584B1860584B8A
:1066E0001868BDE8F843FDF725BD136823F00F03D4
:1066F0000B431360136803F00F038B42BFD1C7E74E
:106700006F684C4C032F236856D19B01B7D5E368C3
:10671000E068E3684B49C0F30310C3F3062301307C
:10672000B1FBF0F14B43E168C1F341610131490034
:10673000B3FBF1F344498B422CD84FF00008A36817
:1067400023F003033B43A360FDF736FD41F2883994
:106750000746A3686A6803F00C03B3EB820F3AD1D3
:106760002A6891073ED5334B12F0040F1EBF99687B
:1067700041F4E0619960120741BF9A6822F47C52AB
:1067800042F4E0629A609A68A96822F0F0020A4333
:106790009A6082E7A36813F0F00F04D09007CCD57D
:1067A000AB68002BC9D1A36823F0F00343F080034A
:1067B000A3604FF08008C2E7022F09D113F4003F15
:1067C0003FF45DAFFFF72AFF1F4B9842B5D9EAE7C8
:1067D00013F4806FF4E7FDF7EFFCC01B4845B8D910
:1067E00003204DE7B8F1000F3FF457AFA36823F043
:1067F000F003A36051E7236823F00F0333432360C2
:10680000FDF7DAFC41F288380746236803F00F03EE
:10681000B3423FF449AFFDF7CFFCC01B4045F4D96C
:10682000DEE7A368E96823F4E0630B43A36041E774
:106830000020024000100240987F00086400002001
:106840009C0100200024F40000B4C4042DE9F341AD
:106850000446006810F4002056D0984DAB6DD80067
:1068600044D4AB6D43F08053AB65AB6D03F0805304
:106870000193019B0126924F3B6843F480733B6078
:10688000FDF79AFC80463B68D90531D5D5F89020B4
:10689000236C12F440721FD09A4211D0D5F8903078
:1068A000D5F8902042F48032C5F89020D5F8902099
:1068B00023F4407322F48032C5F89020C5F890305C
:1068C000DA0709D5FDF778FC41F288380746D5F894
:1068D00090309B0740F1EB80D5F89030226C23F488
:1068E00040731343C5F89030002008E00026C2E74B
:1068F000FDF762FCA0EB08000228C4D903201EB1FA
:10690000AB6D23F08053AB652368DE0708D56B4978
:106910006568D1F8882022F003022A43C1F8882054
:106920009D0708D56549A568D1F8882022F00C029A
:106930002A43C1F88820590708D56049E568D1F88D
:10694000882022F030022A43C1F888201A0708D58F
:106950005A492569D1F8882022F0C0022A43C1F89B
:1069600088209F0608D555496569D1F8882022F40A
:1069700040622A43C1F888205E0608D54F49A569C0
:10698000D1F8882022F440522A43C1F888201D06FD
:1069900008D54A49E569D1F8882022F440422A43C3
:1069A000C1F88820D90508D54449256AD1F888203E
:1069B00022F440322A43C1F888209A0508D53F497D
:1069C000656AD1F8882022F440222A43C1F8882041
:1069D0005F050FD53949A56AD1F8882022F4401205
:1069E0002A43C1F88820B5F5801F02BFCA6842F467
:1069F0008012CA601E050FD53049E56AD1F888209B
:106A000022F440022A43C1F88820B5F5800F02BF66
:106A1000CA6842F48012CA60DD040FD52749256B8D
:106A2000D1F8882022F040722A43C1F88820B5F1BD
:106A3000807F02BFCA6842F48012CA6099040FD5F1
:106A40001E49656BD1F8882022F040622A43C1F8C4
:106A50008820B5F1006F02BFCA6842F48012CA6094
:106A60005A040FD51549A56BD1F8882022F0406251
:106A70002A43C1F88820B5F1006F02BFCA6842F40A
:106A80008012CA601B040FD50C4AE16BD2F8883023
:106A900023F040530B43B1F1805FC2F8883003D13B
:106AA000D36843F48033D36002B0BDE8F081FDF7D2
:106AB00083FBC01B40457FF60AAF1FE70010024072
:106AC00000700040104B9A6B42F480729A639A6B8C
:106AD00022F480729A63D0E9003213438268134330
:106AE000C2681343026943EA0243084A53601368C9
:106AF000416923F4FE4343EA01231360136843F022
:106B000060031360704700BF001002400020004087
:106B1000F7B50E4614460546FDF74EFB3444241ADD
:106B2000FDF74AFB224B1B68C3F3CB336343074695
:106B300001932A68906810F080002DD0731CF9D062
:106B4000FDF73AFBC01BA04228D32B685A6822F0FD
:106B5000E0025A606A68B2F5827F0AD1AA68B2F58B
:106B6000004F02D0B2F5806F03D11A6822F04002C4
:106B70001A60AA6AB2F5005F07D11A6822F40052BF
:106B80001A601A6842F400521A60012385F85D30D9
:106B9000002385F85C30032003B0F0BD019A019B0F
:106BA000002A03F1FF33019308BF1446C1E700BF79
:106BB000640000202DE9F7431C46002317468DF89A
:106BC000033005460E46FDF7F7FA3C44241AFDF75C
:106BD000F3FA294BD5F800901B68232253431B0D71
:106BE0006343804601932A689068304038D0B6F5F8
:106BF000C06F01BF99F80C30DBB28DF803309DF8FF
:106C000003307B1CF0D0FDF7D7FAA0EB0800A042C0
:106C100029D32B685A6822F0E0025A606A68B2F5FC
:106C2000827F0AD1AA68B2F5004F02D0B2F5806F18
:106C300003D11A6822F040021A60AA6AB2F5005F16
:106C400007D11A6822F400521A601A6842F40052FE
:106C50001A60012385F85D30002385F85C3003203D
:106C600003B0BDE8F083019A019B002A03F1FF33D2
:106C7000019308BF1446B6E76400002070B51346C0
:106C80000D4616460A464FF4C0510446FFF792FFE0
:106C900028B1236E43F020032366032070BD3246E3
:106CA00029462046FFF734FF0028F2D133462A4612
:106CB0004FF4C0612046FFF77DFF0028EED0E8E7E3
:106CC00070B50446002866D0436A002B5FD1426845
:106CD000B2F5827F00D0C3610023A36294F85D30D7
:106CE00003F0FF0223B984F85C202046FBF72CF860
:106CF0002268E068A668A169022384F85D30136801
:106D000023F040031360B0F5E06F4FF000038ABF3B
:106D10001D464FF48055B0F5706F18BFA3626368CD
:106D200006F4044603F482733343266906F0020630
:106D30003343666906F00106334301F400763343BA
:106D4000E66906F038063343266A06F080063343C8
:106D5000A66A06F4005633431360666B636A06F056
:106D6000080603F0100300F470603343090C03437A
:106D700001F004010B432B435360D36923F40063F8
:106D8000D36100200123206684F85D3070BD0023AC
:106D9000C0E90433A0E70120F8E72DE9F3471F46D7
:106DA00090F85C30012B04460D46904600F0BC8004
:106DB000012380F85C30FDF7FFF994F85D30012B7A
:106DC00082465FFA83F940F0AC80002D69D0B8F1BB
:106DD000000F66D0032384F85D3000232366C4E9E6
:106DE0001333A4F83E802364A4F84430A4F846305A
:106DF000A3682668A563B3F5004FA4F83C8007D1CB
:106E0000336823F040033360336843F480433360D6
:106E1000336862685B065EBF336843F040033360EB
:106E2000E368B3F5E06F43D912B1B8F1010F07D1B0
:106E300035F8023BF360A563E38F013B9BB2E38728
:106E4000E38F9BB2B3B9524639462046FFF716FF8F
:106E5000002863D1A36833B901932368DA680192EB
:106E60009B680193019B236EDBB9012284F85D20AE
:106E7000994616E0226893689D0705D5A36B33F801
:106E8000021BD160A363D7E7FDF796F9A0EB0A00D8
:106E9000B842D5D3781CD3D0012384F85D304FF0AD
:106EA0000309002384F85C30484602B0BDE8F0874F
:106EB00012B1B8F1010F13D1E38F9BB2012B06D9A8
:106EC00035F8023BF360A563E38F023B06E02B78C5
:106ED0003373A36B0133A363E38F013B9BB2E3875F
:106EE000E38F9BB2002BAED02268936899070CD534
:106EF000E18FA36B89B2012904D933F8021BD16059
:106F0000A363E1E71B781373E3E7FDF755F9A0EB03
:106F10000A00B842E4D37B1CE2D0BDE720232366FD
:106F200098E74FF00209BCE74FF00209BCE70346BF
:106F30004BF680720020A3F84400A3F8402070476D
:106F4000B0F8403023F47E535B045B0CA0F8403073
:106F50000020704782B0034602A800E90600002026
:106F60000122A3F84020A3F84000A3F84400A3F8AE
:106F7000500002B070470000F0B50D78CE7830F8C0
:106F8000254024F4EC4424F07004240403462A46EB
:106F9000240C032E53D8DFE806F0024F4D4B44F487
:106FA0000074304648F2800C44EA0C0423F8224076
:106FB00033F82240DFF87CE2A4B204EA0E042C434A
:106FC0004CEA040423F822400C7B03EBC507002C99
:106FD00040F08780CC8891F801C064086400BCF15F
:106FE000000F2ED0B3F8501017FA81F1A1F8004429
:106FF00033F8221049060AD533F8221089B201EA83
:107000000E0141F4004141F0C00123F8221033F891
:107010002210894C89B2012E01EA040101D081F0CD
:10702000200141F4004141F0800123F82210B8E032
:1070300044F4C0640020B5E744F48064FAE701201A
:10704000B0E7B3F85060096917FA86F63E29A6F84A
:107050000444B3F8504017FA84F4B4F80664C6F355
:107060000906A4F806642BD94E09CF06B4F8061415
:1070700008BF06F1FF3689B241EA86216FEA414135
:107080006FEA514189B2A4F8061433F822104F0474
:107090000DD533F8221021F4E04121F070010904EC
:1070A000090C41F4404141F0800123F8221033F8EB
:1070B0002210624C89B2214085B981F44051B0E779
:1070C00011B9B4F80614D9E74E08C907B4F8061484
:1070D00048BF013689B241EA8621D3E781F40051E5
:1070E0009FE7022E33F822405CD1A4B204EA0E04DA
:1070F00044F4014444F0800423F82240B3F8505093
:107100000C8917FA85F564086400A5F800444C89D9
:10711000B3F85050640817FA85F56400A5F80444E4
:107120004978002949D133F822104E040DD533F89F
:10713000221021F4E04121F070010904090C41F40E
:10714000404141F0800123F8221033F822104D060F
:107150000DD533F8221021F4E04121F0700109042B
:10716000090C41F4004141F0C00123F8221033F82A
:10717000221021F4804121F070010904090C48F229
:10718000800481F44051214323F8221033F8221067
:1071900021F4E04121F040010904090C0C4323F8DB
:1071A0002240F0BD24F4E24424F070042404240CB2
:1071B0004CEA040C23F822C0A0E733F822104C0458
:1071C0000DD533F8221021F4E04121F070010904BB
:1071D000090C41F4404141F0800123F8221033F8BA
:1071E000221049060DD533F8221021F4E04121F098
:1071F00070010904090C41F4004141F0C00123F879
:10720000221033F822100C4C89B22140012E18BFF5
:1072100081F0200141F4004141F0800123F8221067
:1072200033F8221021F4804121F070010904090C87
:10723000F7E600BF8F8FFFFFBF8FFFFF8FBFFFFFFE
:107240004A780B78097BD9BB0AB330F82320510662
:107250000DD530F8232022F4E04222F0700212040F
:10726000120C42F4004242F0C00220F8232030F811
:10727000232022F4E04222F040021204120C42F4D5
:10728000004242F0800220F823200020704730F8AE
:10729000232052040DD530F8232022F4E04222F0BE
:1072A00070021204120C42F4404242F0800220F8B4
:1072B000232030F8232022F4804222F07002DCE701
:1072C000002A4AD130F8232051040DD530F823206C
:1072D00022F4E04222F070021204120C42F4404206
:1072E00042F0800220F8232030F8232052060DD5EA
:1072F00030F8232022F4E04222F070021204120C33
:1073000042F4004242F0C00220F8232030F823204B
:1073100022F4E04222F070021204120C42F4004205
:1073200042F0C00220F8232030F8232022F48042CB
:1073300022F070021204120C48F280010A4320F875
:10734000232030F8232022F4E04222F040021204ED
:10735000120C114320F8231097E730F82320510432
:107360000DD530F8232022F4E04222F070021204FE
:10737000120C42F4404242F0800220F8232030F800
:10738000232052060DD530F8232022F4E04222F0CB
:1073900070021204120C42F4004242F0C00220F8C3
:1073A000232030F8232022F4E04222F0700212045D
:1073B000120C42F4404242F0800220F8232030F8C0
:1073C000232022F4E04222F040021204120C48F280
:1073D00080010A4320F8232030F8232022F4804241
:1073E00022F07002B3E74B780A788BB130F8223084
:1073F00023F4E04323F040031B041B0C83F0100331
:1074000043F4004343F0800320F82230002070470B
:1074100030F8223023F4804323F070031B041B0C4C
:1074200083F48053ECE70B7B3BBB4B780A7833B398
:1074300030F822305B060DD530F8223023F4E043DB
:1074400023F070031B041B0C43F4004343F0C00300
:1074500020F82230CB78012B0FD030F8223023F4E3
:10746000E04323F040031B041B0C83F0200343F490
:10747000004343F0800320F822300020704730F8AA
:1074800022305B040DD530F8223023F4E04323F0A2
:1074900070031B041B0C43F4404343F0800320F8AB
:1074A000223030F8223023F4804323F070031B0491
:1074B0001B0C83F44053DAE711B98023A0F84C3059
:1074C00000207047B0F858306FEA43436FEA5343E7
:1074D0009BB2A0F8583000207047B0F8440080B24A
:1074E000704702F58062013310445B0801EB4303EF
:1074F000401A8B4200D170470A880A520231F8E7DD
:107500002DE9F0474B780E7B012B04460D4640F0E9
:107510001C81D1F810A08F694969574528BF57468B
:1075200016BBBFB2EA883B46FFF7DBFFB4F850203A
:107530002B7804F2024111FA82F202EBC3021780A7
:107540002A7834F8223023F4E04323F040031B046C
:107550001B0C83F0300343F4004343F0800324F812
:1075600022300020BDE8F087EB782E6A95F800C045
:10757000022B40F0D380B24530F82C2080F0B78049
:1075800022F4E04222F070021204120C42F4014292
:1075900042F0800220F82C2030F82C80B0F85020E7
:1075A000F61B18F040082E6201EB0709BBB251D060
:1075B00000F2064E1EFA82F222F83C306A89FFF78A
:1075C00090FFB2456A78C5F8149036BFF31B0023CC
:1075D0003E462B62B3B282BBB4F85020297804F245
:1075E000024010FA82F202EBC1023E2E1188C1F372
:1075F0000901118014D911887009F60608BF00F13D
:10760000FF3089B241EA80216FEA41416FEA51417E
:1076100089B211802A8949462046FFF762FF8FE729
:107620000EB91188F0E7F10711884FEA560048BFFC
:10763000013089B241EA8021EAE7012AEAD1B4F8AF
:107640005020297804F2024010FA82F202EBC102C3
:107650001380DFE700F2024E1EFA82F222F83C307D
:107660002A89FFF73EFFB2456A78C5F8149036BF05
:10767000F31B43463E462B62B3B25ABBB4F85020CC
:10768000297804F2064010FA82F202EBC1023E2E83
:107690001188C1F30901118010D911887009F7060A
:1076A00008BF00F1FF3089B241EA80216FEA414111
:1076B0006FEA514189B211806A89ACE70EB911882D
:1076C000F4E711887008F60748BF013089B241EA33
:1076D0008021EFE7012AEFD1B4F85020297804F295
:1076E000064010FA82F202EBC1021380E4E722F4B2
:1076F000E24222F070021204120C42F4004242F004
:10770000800220F82C20B0F8502000F2024313FA37
:1077100082F2B3B222F83C302A897EE730F82C207E
:10772000F61B12F0400F2E62B0F85020BBB207D00B
:1077300000F2064616FA82F222F83C306A896CE7BB
:1077400000F2024616FA82F2E4E7002E3CD18A6982
:107750000B699A4284BFD61A1A46B0F850308E612F
:1077600000F20640097810FA83F303EBC1033E2AC6
:107770001988C1F3090119801AD95109D0061A884C
:1077800008BF01F1FF3192B242EA81226FEA424220
:107790006FEA524292B21A802A7834F8223023F4E7
:1077A000804323F070031B041B0C83F44053D2E688
:1077B0000AB91A88EAE75108D2071A8848BF013186
:1077C00092B242EA8122E5E7CA78022A40F0A0801C
:1077D000002B39D1B0F850102B7800F2024212FA87
:1077E00081F1DF0031F83320C2F3090221F83320A0
:1077F0002A693E2A00F2064643D931F83300570978
:1078000012F01F02BC4680B208BF07F1FF3740EA02
:107810008720884F384380B221F83300B4F85010E5
:1078200016FA81F131F83300C0F3090021F8330072
:107830006046002A69D031F8332092B242EA8022B1
:107840003A4392B221F83320EB69002BA4D02A7876
:1078500034F8221044F2400303EA01008B4301D0C4
:10786000002899D134F8223023F4E04323F0700348
:107870001B041B0C43F4004343F0C00324F82230E4
:107880008AE7DAB931F833206FEA42426FEA5242AE
:1078900092B221F83320B0F8502016FA82F2D119B2
:1078A00032F83300C0F3090022F833000B886FEA86
:1078B00043436FEA53439BB20B80C5E731F8330073
:1078C0004FEA520812F0010CC64680B218BF08F108
:1078D000010840EA882080B221F83300B4F8500053
:1078E00016FA80F0C11930F83360C6F3090620F8A3
:1078F0003360002ADAD07246BCF1000F00D00132AA
:107900000B889BB243EA8223D5E70CF1FF3092E764
:10791000012A40F08D808A6909698A428ABF501A1B
:1079200000200A46A861002B7FF436AFB4F850005F
:107930002B7804F2024111FA80F03E2A30F833101D
:10794000C1F3090120F833104FEAC30704F20646D9
:1079500027D930F83310570912F01F02BC4689B2FC
:1079600008BF07F1FF3741EA8721324F394389B217
:1079700020F83310B4F8501016FA81F131F83300C2
:10798000C0F3090021F833006046002A4DD031F8D9
:10799000332092B242EA80223A4392B221F8332055
:1079A000FAE6DAB930F833206FEA42426FEA52421F
:1079B00092B220F83320B4F8502016FA82F2D1198E
:1079C00032F83300C0F3090022F833000B886FEA65
:1079D00043436FEA53439BB20B80DDE630F833102C
:1079E0004FEA520812F0010CC64689B218BF08F1DE
:1079F000010841EA882189B220F83310B4F8500018
:107A000016FA80F0C11930F83360C6F3090620F881
:107A10003360002ADAD07246BCF1000F00D0013288
:107A20000B889BB243EA8223D5E70CF1FF30AEE727
:107A3000012097E50080FFFF02F58062F0B5104459
:107A40005D080C462E46471A3A19023436B9DB0750
:107A500044BF30F8153001F81530F0BD128892B2ED
:107A600004F8022C120A04F8012C013EECE7000095
:107A7000830730B547D0541E002A3ED0CAB2034611
:107A800001E0013C39D303F8012B9D07F9D1032C08
:107A90002CD9CDB205EB05250F2C05EB054535D9C5
:107AA000A4F1100222F00F0C03F1100EE6444FEA8D
:107AB000121C1A46156055609560D56010327245EB
:107AC000F8D10CF1010214F00C0F03EB021204F0D8
:107AD0000F0C13D0ACF1040323F00303043313445D
:107AE00042F8045B9A42FBD10CF003042CB1C9B2FA
:107AF0001C4403F8011B9C42FBD130BD6446134675
:107B0000002CF4D1F9E703461446C0E71A46A44610
:107B1000E0E700BF70B50F4B0F4DAB42A3EB05067E
:107B200007D0B610002455F8043B01349847A6420C
:107B3000F9D800F0DDF9094D094B5E1BAB424FEA65
:107B4000A60606D0002455F8043B01349847A64207
:107B5000F9D870BD0CA900080CA900080CA90008F0
:107B600014A90008704700BF704700BF024B13B153
:107B7000024800F005B87047000000008D7B000847
:107B8000002301461A46184600F014B838B5074DD0
:107B9000074C2C1BA41005D0013C55F8043D984718
:107BA000002CF9D1BDE8384000F0A8B918A90008A8
:107BB00014A900082DE9F8431B4D0646286898468D
:107BC0000F469146FFF7CEFF184B1C681CB3286880
:107BD00065681F2D22DC4EB96B1C0235636044F8CA
:107BE0002570FFF7C1FF0020BDE8F88304EB850195
:107BF0000123C1F88890D4F88821AB401A43022EA3
:107C0000C4F88821C1F80881E6D1D4F88C211A4340
:107C1000C4F88C21E0E7064C1C60D8E7FFF7A4FF0E
:107C20004FF0FF30E0E700BFC00100206C2F0020C4
:107C3000702F00202DE9F047089D0C46002B4ED1F7
:107C400094468C458646B2FA82F262D94AB1C2F1B4
:107C50002003914020FA03F30CFA02FC194300FAC6
:107C600002FE4FEA1C471FFA8CF6B1FBF7F44FEA0D
:107C70001E4307FB141143EA014304FB06F199423A
:107C80000AD91CEB030304F1FF3080F01281994202
:107C900040F20F81023C6344591A1FFA8EF3B1FB84
:107CA000F7F007FB101143EA014300FB06F69E4282
:107CB0000AD91CEB030300F1FF3180F0FC809E42E7
:107CC00040F2F980634402389B1B40EA04400021E3
:107CD0001DB1D3400022C5E90032BDE8F0878B42D8
:107CE00005D90DB1C5E9000100210846F5E7B3FA51
:107CF00083F1002946D1A34202D39042C0F0F08024
:107D0000861A64EB03030120002DE6D0C5E9006369
:107D1000E3E7002A40F09080A1EB0C044FEA1C48F6
:107D20001FFA8CF70121B4FBF8F64FEA1E4308FB5B
:107D3000164443EA044307FB06F0984208D91CEBBB
:107D4000030306F1FF3402D2984200F2CD802646AA
:107D50001C1A1FFA8EF3B4FBF8F008FB104443EA38
:107D6000044300FB07F79F4208D91CEB030300F113
:107D7000FF3402D29F4200F2B0802046DB1B40EA73
:107D80000640A5E7C1F120068B4022FA06F71F4303
:107D900020FA06FC04FA01F343EA0C03F44000FA6B
:107DA00001F8380C4FEA1349B4FBF0FE1FFA87FCC8
:107DB00000FB1E4449EA04440EFB0CF9A14502FAFB
:107DC00001F20AD93C190EF1FF3A80F08480A145F6
:107DD00040F28180AEF1020E3C44A4EB09041FFA8C
:107DE00083F9B4FBF0F300FB134449EA044403FBBA
:107DF0000CFCA44507D93C1903F1FF3067D2A44518
:107E000065D9023B3C4443EA0E40A0FB0293A4EB3D
:107E10000C049C42CE469C4651D34ED055B1B8EB93
:107E20000E0364EB0C0404FA06F6CB401E43CC4070
:107E3000C5E90064002150E7C2F1200320FA03F1F4
:107E40000CFA02FC24FA03F394400C434FEA1C485A
:107E500000FA02FE1FFA8CF7B3FBF8F008FB1031B2
:107E6000230C43EA014300FB07F1994208D91CEBBC
:107E7000030300F1FF362CD299422AD90238634419
:107E80005B1AA4B2B3FBF8F108FB113344EA0344D4
:107E900001FB07F3A34208D91CEB040401F1FF36F0
:107EA00013D2A34211D902396444E41A41EA0041D1
:107EB00039E70446F0E6084606E7C845AED2B9EB16
:107EC000020E63EB070C0138A8E73146EDE70346E5
:107ED00099E73046D4E7D6467FE7634402384DE75A
:107EE0000646234608460FE7023E634430E700BFDC
:107EF000F8B500BFF8BC08BC9E467047F8B500BF97
:087F0000F8BC08BC9E46704766
:107F080025642E253032642056003D3D3D3D4475A4
:107F18006D6D79583D3D3D3D002564206D4100253E
:107F280030326C753A2530326C753A2530326C75C2
:107F38000053776974636850692044756D6D79588A
:107F48000043414E61626C65322044756D6D79580D
:107F58002E302E312068747470733A2F2F6769742D
:107F680065652E636F6D2F73776974636870692F09
:107F780044756D6D79580043444320436F6E6669BC
:107F8800670043444320496E746572666163650007
:107F980000000000000000000102030406070809B1
:107FA80043414E61626C65204572726F7220526562
:107FB8006769737465723A2025580000010203044A
:107FC800050607080C10141820304044756D6D79AB
:107FD800582E302E312068747470733A2F2F6769C9
:107FE8007465652E636F6D2F737769746368706944
:107FF8002F44756D6D79580D00666E692B00666E9D
:1080080069006E616E00666E692D00000000000058
:10801800000000000000F03F0000000000002440C5
:1080280000000000000059400000000000408F40A0
:10803800000000000088C34000000000006AF8400B
:108048000000000080842E4100000000D01263412F
:108058000000000084D797410000000065CDCD41A5
:1080680004E010021C07123732292D29252B39006C
:10807800010310E110031D07062E2C292D2E2E3783
:108088003F0000021013800A298064032A040000BC
:10809800004F2B040000009F21000F0180961180E3
:1080A800FFB103012C2DB203012C2DB306012C2D99
:1080B800012C2DB40107C003A20284C101C5C2026C
:1080C8000A00C3028A2AC4028AEEC5010E200036BD
:1080D80001683A01050000000000000000000000EF
:1080E8000000000000000000000000000000000088
:1080F8000000000000000000000000000000000078
:1081080000000000000000000000E003E003E003BE
:10811800E003E003E003E003E003C003C003C001A1
:10812800C001C001C001C001000000000000E00360
:10813800E003E003000000000000000000003C1E17
:108148003C1E3C1E3C1E3C1E3C1E3C1E000000000B
:108158000000000000000000000000000000000017
:108168000000000000000000000000000000000007
:108178000000CE01CE03DE039E039C039C07FF3F55
:10818800FF7F3807380F780F780F780EFFFFFFFF53
:10819800F01EF01CE01CE03CE03DE039000000006F
:1081A800000000000000FC03FE0FEE1FE01EE01EB2
:1081B800E01EE01EE01FE00FE007F003FC01FE01F7
:1081C800FE01FE01FE01FE01FE01FE3DFC3FF00F37
:1081D800E001E001000000000000033E07F78FE720
:1081E8008EE79EE3BCE3B8E7F8E7F0F7E03FC001AD
:1081F800FF03FF07F307F30FF31EF33CF338F3789D
:108208007FF03FE000000000000000000000E007F1
:10821800F80F780F781F781F781F780FF00FE00F8E
:10822800801FC37FC3FBE7F3F7F1F7F0FFF07FF0A0
:108238003EF87F7CFF3FEF1F0000000000000000B9
:108248000000E003E003E003E003E003C003C00133
:108258000000000000000000000000000000000016
:108268000000000000000000000000000000000006
:108278000000000000003F007C00F001E001C003A6
:10828800C00780078007800F000F000F000F000F46
:10829800000F000F800F80078007C007C003E001B0
:1082A800F0017C003F000F000000007E001FC007A7
:1082B800C003E001F001F000F000F8007800780059
:1082C8007800780078007800F800F000F000F001FD
:1082D800E001C003C007001F007E00780000E00333
:1082E800C003C001CE39FF3F7F3F20037003F8076A
:1082F800780F3C1F38060000000000000000000056
:108308000000000000000000000000000000000065
:108318000000000000000000000000000000C00194
:10832800C001C001C001C001C001C001FFFFFFFFC3
:10833800C001C001C001C001C001C00100000000AF
:108348000000000000000000000000000000000025
:108358000000000000000000000000000000000015
:108368000000000000000000E003E003E003E00379
:10837800E001E001E001C00180030000000000000E
:1083880000000000000000000000000000000000E5
:10839800FE3FFE3F0000000000000000000000005B
:1083A80000000000000000000000000000000000C5
:1083B80000000000000000000000000000000000B5
:1083C80000000000000000000000000000000000A5
:1083D800E003E003E003E003000000000000000009
:1083E80000000F000F001E001E003C003C0078003B
:1083F8007800F000F000E001E001C003C00380074E
:108408008007000F000F001E001E003C003C007893
:10841800007800F00000F007F80F7C1F3E3E1E3C7D
:108428001F7C1F7C0F780F780F780F780F780F78E4
:108438000F781F7C1F7C1E3C3E3E7C1FF80FF00708
:1084480000000000000000000000F000F007F03F0E
:10845800F03FF001F001F001F001F001F001F0014E
:10846800F001F001F001F001F001F001F001F0017C
:10847800FF3FFF3F00000000000000000000E00F89
:10848800F83F7C3C3C003E003E003E003C003C0087
:108498007C00F800F001E003C0078007000F001E11
:1084A800003E003CFE3FFE3F0000000000000000D0
:1084B8000000F00FF81F7C1C3E003E003E003C0010
:1084C8003C00F800F00FF80F7C003E001E001E0074
:1084D8001E001E003E007C1CF81FE01F000000006C
:1084E8000000000000007800F800F800F801F80328
:1084F800F807F807780F781E781E783C787878782F
:10850800FFFFFFFF78007800780078007800780097
:1085180000000000000000000000FC1FFC1FFC1F02
:10852800001E001E001E001E001EE01FF81FFC009B
:108538007C003E003E001E003E003E003C007C1CCD
:10854800F81FE01F00000000000000000000FC0110
:10855800FE078E0F001F001E003E003C003CF83D49
:10856800FC3F3E7F1F7E0F3C0F3C0F3C0F3C0F3EF5
:108578001F1E3E1FFC0FF00300000000000000005B
:108588000000FF3FFF3FFF3F0F001E001E003C00A2
:1085980038007800F000F000E001E001C003C003FB
:1085A8008007800F800F000F001F001F00000000D1
:1085B800000000000000F807FC0F3E1F1E1E1E3EB4
:1085C8001E3E1E1E3C1FF80FF007F80FFC1E3E3E15
:1085D8001F3C1F7C0F7C0F7C1F3C3E3FFC1FF0079D
:1085E80000000000000000000000F007F80F7C1EEB
:1085F8003E3C1E3C1F7C1F7C1F7C1F7C1F3C3F3E5B
:10860800FF1FEF071F001E001E003E003C00F83849
:10861800F03FE01F00000000000000000000000024
:1086280000000000000000000000E003E003E00399
:10863800E00300000000000000000000000000004F
:10864800E003E003E003E003000000000000000096
:108658000000000000000000000000000000E0032F
:10866800E003E003E0030000000000000000000059
:1086780000000000E003E003E003E003E001E001A4
:10868800E001C003800300000000000000000000BB
:10869800000003000F003F00FC00F003C00F003F84
:1086A80000FE003FC00FF003FC003F000F00030076
:1086B80000000000000000000000000000000000B2
:1086C8000000000000000000000000000000FFFFA4
:1086D800FFFF000000000000FFFFFFFF0000000098
:1086E8000000000000000000000000000000000082
:1086F8000000000000000000000000E000F8007E1C
:10870800801FE007F8017E001F007E00F801E007E7
:10871800801F007E00F800E000000000000000005C
:108728000000F01FFC3F3E381F381F381E001E0097
:108738003C007800F000E001C003C003C007C00798
:10874800000000000000C007C007C00700000000CC
:10875800000000000000F803FE0F1E1F0F3E7F3CC4
:10876800FF78EF79C773C7F38FF38FF38FF39FF316
:108778009FF3FF73FF7BF779003C1C1FFC0FF80386
:1087880000000000000000000000000000000000E1
:10879800E003E003F007F007F007780F780F7C0E8E
:1087A8003C1E3C1E3E3CFE3FFF3F1F780F780FF0FB
:1087B80007F007F0000000000000000000000000C3
:1087C80000000000F83FFC3F3E3C1E3C1E3C1E3CA7
:1087D8003E3C7C3CF03FF83F7E3C1F3C1F3C0F3C3E
:1087E8000F3C1F3CFE3FF83F000000000000000067
:1087F8000000000000000000FF01FF07871F003E87
:10880800003C007C00780078007800780078007CD4
:10881800007C003E003F831FFF07FF0100000000AF
:10882800000000000000000000000000F07FFC7F56
:108838007E781F781F780F780F780F780F780F7869
:108848000F780F780F781F781E787E78F87FE07F92
:108858000000000000000000000000000000000010
:10886800FF3FFF3F003E003E003E003E003E003E10
:10887800FE3FFE3F003E003E003E003E003E003E02
:10888800FF3FFF3F00000000000000000000000064
:1088980000000000FF1FFF1F001E001E001E001E1C
:1088A800001E001EFF1FFF1F001E001E001E001ED0
:1088B800001E001E001E001E000000000000000038
:1088C8000000000000000000FE03FF0F871F003EAD
:1088D800007C007C007800F800F87FF87FF80F78BB
:1088E8000F7C0F7C0F3E8F1FFF0FFE030000000060
:1088F8000000000000000000000000001F7C1F7C3A
:108908001F7C1F7C1F7C1F7C1F7C1F7CFF7FFF7FC1
:108918001F7C1F7C1F7C1F7C1F7C1F7C1F7C1F7C77
:10892800000000000000000000000000000000003F
:10893800FF3FFF3FE003E003E003E003E003E00361
:10894800E003E003E003E003E003E003E003E00307
:10895800FF3FFF3F00000000000000000000000093
:1089680000000000FC1FFC1F7C007C007C007C00D9
:108978007C007C007C007C007C007C007C00780013
:108988007800F838F03FC03F000000000000000009
:1089980000000000000000001F3C1E3C3C3C783CEE
:1089A800F03CE03DE03FC03F803FC03FE03FF03D4E
:1089B800F03C783C7C3C3E3C1F3C0F3C00000000F7
:1089C800000000000000000000000000003E003E23
:1089D800003E003E003E003E003E003E003E003E9F
:1089E800003E003E003E003E003E003EFF3FFF3F8F
:1089F800000000000000000000000000000000006F
:108A08001FF81FFC1FFC3FFE3FFE3FFE7FFF77FF66
:108A180077FFF7F7E7F7E7F3E7F3C7F307F007F0B0
:108A280007F007F000000000000000000000000050
:108A3800000000000F7C0F7C0F7E0F7F0F7F8F7F61
:108A48008F7FCF7FEF7BEF79FF79FF78FF787F7893
:108A58003F783F781F781F78000000000000000072
:108A68000000000000000000F007FC1F3E3E1F7CD5
:108A78000F780F780FF80FF80FF80FF80FF80FF8B6
:108A88000F780F781F7C3E3EFC1FF00700000000A7
:108A9800000000000000000000000000FC3FFF3F55
:108AA8001F3E0F3E0F3E0F3E0F3E1F3E3F3EFC3F18
:108AB800F03F003E003E003E003E003E003E003ECD
:108AC800000000000000000000000000000000009E
:108AD800F007FC1F3E3E1F7C0F780F780FF80FF849
:108AE8000FF80FF80FF80FF80F780F781F7C3E3E3D
:108AF800FC1FF8077C003F000F0003000000000087
:108B080000000000F03FFC3F7E3C3E3C1E3C1E3C0B
:108B18003E3C3C3CFC3CF03FE03FF03DF83C7C3CBC
:108B28003E3C1E3C1F3C0F3C0000000000000000C3
:108B38000000000000000000FC07FE1F0E3E003C85
:108B4800003C003C003EC01FF80FFE037F001F00E2
:108B58000F000F001F203E3CFC3FF01F00000000EC
:108B6800000000000000000000000000FFFFFFFF01
:108B7800E003E003E003E003E003E003E003E003D5
:108B8800E003E003E003E003E003E003E003E003C5
:108B980000000000000000000000000000000000CD
:108BA8000F7C0F7C0F7C0F7C0F7C0F7C0F7C0F7C65
:108BB8000F7C0F7C0F7C0F7C0F7C1E3C1E3C3E3EC6
:108BC800FC1FF0070000000000000000000000008B
:108BD8000000000007F007F007F80F780F7C1E3C34
:108BE8001E3C1E3E3C1E3C1F781F780FF80FF007F6
:108BF800F007F007E003E0030000000000000000B9
:108C0800000000000000000003E003F003F007F09C
:108C1800E7F3E7F3E7F3E773F77BF77FFF7F7F7F00
:108C28007F7F7E7F7E3F3E3E3E3E3E3E0000000010
:108C380000000000000000000000000007F80F7CA2
:108C48001E3E3E3E3C1FF80FF007E007E003E0033E
:108C5800F007F80F7C0F7C1E3E3C1F780F780FF052
:108C680000000000000000000000000000000000FC
:108C780007F807780F7C1E3C1E3E3C1F780FF80F44
:108C8800F007E003E003E003E003E003E003E003B0
:108C9800E003E00300000000000000000000000006
:108CA80000000000FF7FFF7F0F001F003E007C00D8
:108CB800F800F000E001E003C007800F000F001E7D
:108CC800003E007CFF7FFF7F0000000000000000E6
:108CD8000000FF078007800780078007800780075C
:108CE8008007800780078007800780078007800744
:108CF8008007800780078007800780078007800734
:108D0800FF07FF07000000780078003C003C001EC9
:108D1800001E000F000F80078007C003C003E0019A
:108D2800E001F000F000780078003C003C001E00F4
:108D38001E000F000F0007000000F07FF000F00099
:108D4800F000F000F000F000F000F000F000F0009B
:108D5800F000F000F000F000F000F000F000F0008B
:108D6800F000F000F000F000F07FF07F0000C0009D
:108D7800C001C001E003E003F007F0077807780FAF
:108D8800380F3C1E3C1E1E3C1E3C0F380F780778DF
:108D980000000000000000000000000000000000CB
:108DA80000000000000000000000000000000000BB
:108DB80000000000000000000000000000000000AB
:108DC800000000000000000000000000FFFFFFFF9F
:108DD800000000000000F00000000000000000009B
:108DE800000000000000000000000000000000007B
:108DF800000000000000000000000000000000006B
:108E0800000000000000000000000000000000005A
:108E1800000000000000F80FFC3F7C3C3E003E00D4
:108E28003E00FE07FE1F3E3E3E7C3E783E7C7E7C3A
:108E3800FF3FCF1F00000000000000000000003CC2
:108E4800003C003C003C003C003CF83DFE3F3E3FFF
:108E58001F3E0F3C0F3C0F3C0F3C0F3C0F3C1F3C90
:108E68001E3C3E3FFC3FF03B0000000000000000BD
:108E78000000000000000000000000000000FE03E9
:108E8800FF0F871F003E003E003C007C007C007CFA
:108E9800003C003E003E871FFF0FFE03000000005D
:108EA8000000000000001F001F001F001F001F001F
:108EB8001F00FF07FF1F3F3E1F3C1F7C1F7C1F7CBE
:108EC8001F781F781F7C1F7C3F3C7F3EFF1FDF0FF2
:108ED800000000000000000000000000000000008A
:108EE800000000000000F803FC0F3E1F1E3E1F3C60
:108EF8001F7CFF7FFF7F007C007C003C003E071F3B
:108F0800FF0FFE0300000000000000000000FF014A
:108F1800E103C003C007C007C007FF7FFF7FC0078A
:108F2800C007C007C007C007C007C007C007C00701
:108F3800C007C007C007C00700000000000000000D
:108F48000000000000000000000000000000EF0723
:108F5800FF1F7F3E1F3C1F7C1F7C1F781F781F78D8
:108F68001F7C1F7C3F3C7F3EFF1FDF0F1E001E0043
:108F78001E007C38F83F003C003C003C003C003CB4
:108F8800003CFC3DFE3F9E3F1F3F1F3E1F3C1F3CD9
:108F98001F3C1F3C1F3C1F3C1F3C1F3C1F3C1F3CF1
:108FA80000000000000000000000F001F0010000D7
:108FB800000000000000E07FE07FE001E001E00148
:108FC800E001E001E001E001E001E001E001E00191
:108FD800E001E00100000000000000000000F800CF
:108FE800F8000000000000000000F83FF83FF8001B
:108FF800F800F800F800F800F800F800F800F800A9
:10900800F800F800F800F800F800F800F000F07137
:10901800E07F003C003C003C003C003C003C1F3C26
:109028003E3C7C3CF83CF03DE03DC03FC03FE03F6B
:10903800F03DF83C7C3C3E3C1F3C1F3C00000000DF
:10904800000000000000F07FF001F001F001F001E5
:10905800F001F001F001F001F001F001F001F00180
:10906800F001F001F001F001F001F001F001F00170
:1090780000000000000000000000000000000000E8
:109088000000000000009EF7FFFFFFFFFFFFE7FB67
:10909800E7F9C7F1C7F1C7F1C7F1C7F1C7F1C7F1E0
:1090A800C7F1C7F100000000000000000000000048
:1090B80000000000000000000000FC3DFE3F9E3F55
:1090C8001F3F1F3E1F3C1F3C1F3C1F3C1F3C1F3CBB
:1090D8001F3C1F3C1F3C1F3C00000000000000001C
:1090E8000000000000000000000000000000F00781
:1090F800FC1F3E3E1F3C1F7C0F780F780F780F78BF
:109108000F781F7C1F3C3E3EFC1FF007000000004C
:109118000000000000000000000000000000000047
:109128000000F83DFE3F3E3F1F3E0F3C0F3C0F3C0A
:109138000F3C0F3C0F3C1F3C1E3E3E3FFC3FF83FA0
:10914800003C003C003C003C003C000000000000EB
:10915800000000000000EE07FE1F7E3E1E3C1E7C45
:109168001E781E781E781E781E781E7C3E7C7E3EF9
:10917800FE1FDE0F1E001E001E001E001E00000047
:10918800000000000000000000007F1FFF1FE71F15
:10919800C71F871F001F001F001F001F001F001F81
:1091A800001F001F001F001F00000000000000003B
:1091B8000000000000000000000000000000FC07A4
:1091C800FE1F0E1E003E003E003FE01FFC07FE0093
:1091D8003E001E001E003E3CFC3FF01F0000000049
:1091E8000000000000000000000000008007800769
:1091F8008007FF7FFF7F8007800780078007800741
:1092080080078007800780078007C007FF03FF01EA
:109218000000000000000000000000000000000046
:109228000000000000001E3C1E3C1E3C1E3C1E3C74
:109238001E3C1E3C1E3C1E3C1E3C3E3C7E3CFE3EF4
:10924800FE1FDE0F0000000000000000000000000C
:109258000000000000000000000007F00F780F7801
:109268001E3C1E3C1E3E3C1E3C1E780F780FF00F25
:10927800F007F007E003E003000000000000000032
:10928800000000000000000000000000000003F0E3
:10929800E3F1E3F3E7F3F7F3F7F3F77F777F7F7F04
:1092A8007F7F7F7F3E3E3E3E3E3E3E3E00000000CA
:1092B80000000000000000000000000000000000A6
:1092C80000000F7C1E3E3C3E3C1FF80FF007F007E5
:1092D800E003F007F807F80F7C1E3E3E1F3C1F789E
:1092E8000000000000000000000000000000000076
:1092F80000000000000007F80F780F7C1E3C1E3CA1
:109308003C1E3C1E3C1F780FF80FF007F007E003E7
:10931800E003C003C003C0038007800F007F000084
:1093280000000000000000000000FF3FFF3F1F009A
:109338003E007C00F800F001E003C007800F001F2A
:10934800001E003CFF7FFF7F0000000000000000BF
:109358000000FE01E003C003C003C003C003E00136
:10936800E001E001C001C003803F803FC003C001AD
:10937800E001E001E001C003C003C003C003E00353
:10938800FE017E000000C001C001C001C001C00193
:10939800C001C001C001C001C001C001C001C001BD
:1093A800C001C001C001C001C001C001C001C001AD
:1093B800C001C001C001C0010000C03FE003E001DE
:1093C800E001E001E001C001C003C003C001E00109
:1093D800FE00FE00E001C001C003C003C001E001BF
:1093E800E001E001E001E003C03F003F00000000B1
:1093F8000000000000000000000000000000000065
:1094080000000000073FC77FE773FFF17EF0000010
:109418000000000000000000000000000000000044
:109428000000000000000000000000000000000034
:109438000000000000000000000000000000000024
:109448000000000000000000000C000C000C000CE4
:10945800000C000C000C000C000C000C000C0000B0
:10946800000C000C0000000000000000001B001BA6
:10947800001B001B001B0000000000000000000093
:1094880000000000000000000000000000000000D4
:109498008019801980198019C07FC07F8019003316
:1094A800C07FC07F0033003300330033000000006A
:1094B80000000000001E003F807580650074003CBD
:1094C800001E00078005806580658075003F001ECE
:1094D8000004000400000000007000D840D8C0D884
:1094E80080D900730006000C801BC036C066C046D9
:1094F800C00680030000000000000000001E003FBE
:10950800003300330033001E000CC03CC06680638B
:1095180080618063C03E801C0000000000000000E5
:10952800000C000C000C000C000C000000000000F7
:109538000000000000000000000000000000000023
:109548000000800000010003000600060004000C73
:10955800000C000C000C000C000C000400060006B7
:10956800000300018000002000100018000C000C0F
:1095780000040006000600060006000600060004B7
:10958800000C000C0018001000200000000C002D3A
:10959800003F001E00330000000000000000000033
:1095A80000000000000000000000000000000000B3
:1095B80000000000000C000C000C000CC0FFC0FFF5
:1095C800000C000C000C000C000000000000000063
:1095D8000000000000000000000000000000000083
:1095E800000000000000000000000000000C000C5B
:1095F8000004000400080000000000000000000053
:109608000000000000000000001E001E0000000016
:109618000000000000000000000000000000000042
:109628000000000000000000000000000000000032
:1096380000000000000C000C00000000000000000A
:109648000003000300030006000600060006000CE5
:10965800000C000C000C0018001800180000000096
:1096680000000000001E003F0033806180618061BF
:10967800806D806D8061806180610033003F001ED5
:1096880000000000000000000006000E001E00366A
:109698000026000600060006000600060006000672
:1096A800000600060000000000000000001E003F49
:1096B800807380618061800100030006000C00183F
:1096C80000300060807F807F000000000000000004
:1096D800001C003E006300630003000E000E000340
:1096E8008001800180618073003F001E000000003F
:1096F800000000000006000E000E001E001E0016EE
:10970800003600360066807F807F0006000600066F
:109718000000000000000000007F007F0060006083
:109728000060006E007F806380018001806180732B
:10973800003F001E0000000000000000001E003F67
:10974800803380610060006E007F8073806180617B
:1097580080618033003F001E000000000000000010
:10976800807F807F80010003000300060006000C54
:10977800000C000C00080018001800180000000079
:1097880000000000001E003F8063806180610021AE
:10979800001E003F8061806180618061003F001E83
:1097A8000000000000000000001E003F0073806100
:1097B800806180618073803F801D800180610073BB
:1097C800003F001E00000000000000000000000034
:1097D80000000000000C000C000000000000000069
:1097E80000000000000C000C000000000000000059
:1097F80000000000000000000000000C000C000049
:109808000000000000000000000C000C0004000430
:109818000008000000000000000080008003000E27
:10982800003800600038000E80038000000000004F
:109838000000000000000000000000000000000020
:10984800807F807F00000000807F807F0000000014
:109858000000000000000000000000000000000000
:10986800000000400070001C000780010007001C79
:109878000070004000000000000000000000000030
:10988800001F803FC071C060C000C0018003000796
:10989800000E000C000C0000000C000C0000000082
:1098A80000000000001E003F803180718063806FDF
:1098B800806D806D806F806700600032003E001C04
:1098C8000000000000000000000E000E001B001B3E
:1098D800001B001B80318031803F803F8031C06099
:1098E800C060C0600000000000000000007C007E36
:1098F8000063006300630063007E007E0063806194
:1099080080618063007F007E00000000000000008E
:10991800001E003F803180610060006000600060D0
:109928000060006080618031003F001E0000000080
:1099380000000000007C007F00638063806180611C
:10994800806180618061806100630063007E007CCB
:109958000000000000000000807F807F0060006041
:1099680000600060007F007F0060006000600060B1
:10997800807F807F0000000000000000807F807FE3
:109988000060006000600060007F007F0060006091
:10999800006000600060006000000000000000003F
:1099A800001E003F803180610060006000608063BD
:1099B8008063806180618031803F001E000000006C
:1099C8000000000080618061806180618061806149
:1099D800807F807F8061806180618061806180613B
:1099E8000000000000000000003F003F000C000CD9
:1099F800000C000C000C000C000C000C000C000CFF
:109A0800003F003F000000000000000080018001CE
:109A180080018001800180018001800180018061D6
:109A280080618073003F001E0000000000000000FD
:109A3800C0608061006300660066006C0078007C8E
:109A480000660066006380618061C06000000000FD
:109A580000000000006000600060006000600060BE
:109A6800006000600060006000600060807F807FB0
:109A78000000000000000000C071C071C07BC07A07
:109A8800C06AC06AC06EC064C060C060C060C060A8
:109A9800C060C0600000000000000000807180719C
:109AA800807980798079806D806D806D8065806730
:109AB800806780678063806300000000000000000A
:109AC800001E003F00338061806180618061806199
:109AD8008061806180610033003F001E000000004B
:109AE80000000000007E007F8063806180618061EB
:109AF8008063007F007E006000600060006000609E
:109B08000000000000000000001E003F00338061DC
:109B180080618061806180618061806580670033D9
:109B2800803F401E0000000000000000007E007F13
:109B38008063806180618063007F007E00660063CF
:109B4800006380618061C0600000000000000000C8
:109B5800000E001F8031803100300038001E0007E1
:109B68008003806180618031003F001E000000009A
:109B780000000000C0FFC0FF000C000C000C000C2F
:109B8800000C000C000C000C000C000C000C000C6D
:109B98000000000000000000806180618061806139
:109BA8008061806180618061806180618061807393
:109BB800003F001E0000000000000000C060C06000
:109BC800C060803180318031001B001B001B001BEE
:109BD800000E000E000E000400000000000000004F
:109BE800C0C0C0C0C0C0C0C0C0C0C0CC804C804CC9
:109BF800805E805280528073806180610000000026
:109C080000000000C0C0806080610033003B001E7F
:109C1800000C000C001E001F003B80718061C0C05A
:109C28000000000000000000C0C0806180610033B7
:109C38000033001E001E000C000C000C000C000C71
:109C4800000C000C0000000000000000803F803F76
:109C58008001000300030006000C000C0018001827
:109C680000300060807F807F000000000000000F4F
:109C7800000F000C000C000C000C000C000C000C79
:109C8800000C000C000C000C000C000C000C000F69
:109C9800000F0000001800180018000C000C000C41
:109CA800000C00060006000600060003000300037F
:109CB800000000000000001E001E0006000600064E
:109CC800000600060006000600060006000600065C
:109CD800000600060006001E001E0000000C000C16
:109CE800001E001200330033806180610000000014
:109CF800000000000000000000000000000000005C
:109D0800000000000000000000000000000000004B
:109D18000000000000000000000000000000E0FF5C
:109D28000000000000380018000C000000000000CF
:109D3800000000000000000000000000000000001B
:109D4800000000000000000000000000000000000B
:109D5800001F803F80618001801F803F8061806399
:109D6800807FC03800000000000000000060006034
:109D780000600060006E007F807380618061806198
:109D880080618073007F006E00000000000000000A
:109D98000000000000000000001E003F807380618A
:109DA8000060006080618073003F001E00000000BA
:109DB800000000008001800180018001801D803F3B
:109DC800807380618061806180618073803F801DC5
:109DD800000000000000000000000000000000007B
:109DE800001E003F00738061807F807F006080716B
:109DF800003F001E0000000000000000C007C00F68
:109E0800000C000C807F807F000C000C000C000C04
:109E1800000C000C000C000C00000000000000000A
:109E2800000000000000801D803F80738061806119
:109E3800806180618073803F801D80018063007F26
:109E4800003E00000060006000600060006F807FDE
:109E580080718061806180618061806180618061E2
:109E680000000000000000000006000600000000DE
:109E7800003E003E0006000600060006000600063A
:109E880000060006000000000000000600060000B2
:109E98000000003E003E0006000600060006000620
:109EA80000060006000600060046007E003C000092
:109EB8000060006000600060806100630066006C04
:109EC800007C0076006300638061C06000000000D1
:109ED80000000000003E003E0006000600060006E6
:109EE800000600060006000600060006000600063A
:109EF800000000000000000000000000000000005A
:109F080080DDC0FFC0CEC0CCC0CCC0CCC0CCC0CCE3
:109F1800C0CCC0CC00000000000000000000000021
:109F280000000000006F807F807180618061806127
:109F38008061806180618061000000000000000095
:109F48000000000000000000001E003F80738061D8
:109F58008061806180618073003F001E0000000006
:109F680000000000000000000000006E007F807309
:109F780080618061806180618073007F006E006015
:109F88000060006000600000000000000000801D0C
:109F9800803F807380618061806180618073803FD1
:109FA800801D800180018001800100000000000008
:109FB800000000000067803F0039003000300030AA
:109FC80000300030003000300000000000000000C9
:109FD8000000000000000000001E803F806100605B
:109FE800007F803F80018061007F001E000000002C
:109FF800000000000000000800180018007F007F23
:10A00800001800180018001800180018801F800F8A
:10A018000000000000000000000000000000000038
:10A02800806180618061806180618061806180631E
:10A03800807F803D0000000000000000000000005C
:10A0480000000000C060803180318031001B001B9F
:10A05800001B000E000E00060000000000000000BB
:10A06800000000000000000080DD80DD80DD00557C
:10A0780000550055007700770022002200000000FC
:10A0880000000000000000000000000080610033B4
:10A098000033001E000C000C001E003300338061EA
:10A0A80000000000000000000000000000008061C7
:10A0B8008061803100330033001B001B001B000E41
:10A0C800000E000E001C007C007000000000000064
:10A0D80000000000C07FC07F800100030006000C64
:10A0E80000180030C07FC07F00000000000080031F
:10A0F800800700060006000600060006000E001C89
:10A10800001C000E00060006000600060006800778
:10A11800800300060006000600060006000600068A
:10A1280000060006000600060006000600060006F7
:10A138000006000600060038003C000C000C000C6D
:10A14800000C000C000E00070007000E000C000CAD
:10A15800000C000C000C003C00380000000000005F
:10A1680000000000000000008038807F00470000E9
:10A1780000000000000000000000000000000000D7
:10A1880000000000000000000000000000000000C7
:10A198000000001000100010001000100010000057
:10A1A800001000000000002800280028000000001F
:10A1B8000000000000000000000000240024007CD3
:10A1C80000240048007C00480048000000000038D7
:10A1D8000054005000380014005400540038001097
:10A1E80000000020005400580030002800540014DB
:10A1F80000080000000000100028002800100034AB
:10A208000048004800340000000000100010001052
:10A21800000000000000000000000000000000082E
:10A228000010002000200020002000200020001046
:10A2380000080020001000080008000800080008B6
:10A24800000800100020001000380010002800004E
:10A2580000000000000000000000000000000010E6
:10A268000010007C0010001000000000000000003A
:10A2780000000000000000000000000000100010B6
:10A28800001000000000000000000000003800007E
:10A2980000000000000000000000000000000000B6
:10A2A8000000000000100000000000080008001076
:10A2B80000100010001000200020000000000038EE
:10A2C80000440044005400440044004400380000A6
:10A2D80000000010003000500010001000100010A6
:10A2E800001000000000003800440044000400088A
:10A2F80000100020007C000000000038004400042A
:10A3080000180004000400440038000000000008A1
:10A318000018002800280048007C000800080000F9
:10A328000000007C00400040007800040004004465
:10A338000038000000000038004400400078004465
:10A3480000440044003800000000007C00040008BD
:10A35800001000100020002000200000000000383D
:10A368000044004400380044004400440038000021
:10A3780000000038004400440044003C000400444D
:10A38800003800000000000000000010000000007D
:10A3980000000000001000000000000000000000A5
:10A3A8000010000000000000001000100010000065
:10A3B8000000000C003000400030000C00000000DD
:10A3C8000000000000000000007C0000007C00008D
:10A3D80000000000000000000000006000180004F9
:10A3E800001800600000000000000038004400046D
:10A3F80000080010001000000010000000000038E5
:10A408000044004C0054005C00400040003800004C
:10A41800000000100028002800280028007C0044C4
:10A428000044000000000078004400440078004424
:10A438000044004400780000000000380044004058
:10A448000040004000400044003800000000007058
:10A4580000480044004400440044004800700000E4
:10A468000000007C00400040007C004000400040AC
:10A47800007C00000000007C0040004000780040A4
:10A488000040004000400000000000380044004048
:10A498000040005C00440044003800000000004414
:10A4A80000440044007C0044004400440044000090
:10A4B80000000038001000100010001000100010FC
:10A4C8000038000000000004000400040004000438
:10A4D8000004004400380000000000440048005018
:10A4E80000600050004800480044000000000040A0
:10A4F800004000400040004000400040007C000058
:10A5080000000044006C006C005400440044004407
:10A51800004400000000004400640064005400543B
:10A52800004C004C00440000000000380044004487
:10A538000044004400440044003800000000007853
:10A5480000440044004400780040004000400000FF
:10A558000000003800440044004400440044005413
:10A5680000380004000000780044004400440078EB
:10A578000048004800440000000000380044004043
:10A588000030000800040044003800000000007C8F
:10A598000010001000100010001000100010000043
:10A5A80000000044004400440044004400440044C7
:10A5B800003800000000004400440044002800283F
:10A5C800002800100010000000000044004400545F
:10A5D80000540054006C00280028000000000044CB
:10A5E800002800280010001000280028004400005F
:10A5F800000000440044002800280010001000104B
:10A60800001000000000007C00040008001000108A
:10A6180000200040007C000000000018001000101E
:10A62800001000100010001000100010001800208A
:10A6380000200010001000100010000800080000A2
:10A648000000003000100010001000100010001072
:10A6580000100010003000100028002800440000FE
:10A6680000000000000000000000000000000000E2
:10A6780000000000000000000000000000FE0020B4
:10A6880000100000000000000000000000000000B2
:10A6980000000000000000380044003C0044004C6A
:10A6A80000340000000000400040005800640044EE
:10A6B800004400640058000000000000000000385A
:10A6C800004400400040004400380000000000043E
:10A6D80000040034004C00440044004C00340000E6
:10A6E80000000000000000380044007C00400044E6
:10A6F800003800000000000C0010007C0010001062
:10A7080000100010001000000000000000000034DD
:10A71800004C00440044004C003400040078004021
:10A728000040005800640044004400440044000015
:10A738000000001000000070001000100010001051
:10A748000010000000000010000000700010001051
:10A75800001000100010001000E000400040004809
:10A7680000500060005000480044000000000070E5
:10A778000010001000100010001000100010000061
:10A7880000000000000000780054005400540054F9
:10A79800005400000000000000000058006400445D
:10A7A800004400440044000000000000000000389D
:10A7B8000044004400440044003800000000000049
:10A7C8000000005800640044004400640058004041
:10A7D8000040000000000034004C00440044004CDD
:10A7E8000034000400040000000000580064004029
:10A7F8000040004000400000000000000000003859
:10A808000044003000080044003800000000002028
:10A818000020007800200020002000200018000000
:10A828000000000000000044004400440044004CC4
:10A83800003400000000000000000044004400282C
:10A84800002800280010000000000000000000544C
:10A8580000540054006C002800280000000000008C
:10A8680000000044002800100010002800440000E8
:10A8780000000000000000440044002800280010E8
:10A8880000100010006000000000007C00080010AC
:10A8980000200040007C000000000018001000109C
:10A8A80000100020002000100010001000180010F8
:10A8B8000010001000100010001000100010001010
:10A8C80000100030001000100010000800080010F0
:10A8D8000010001000300000000000000074004C60
:10A8E8000000000000000000000000010203040551
:0CA8F8000607080C101418203040000067
:08A90400FC58FF7F0100000078
:08A90C006D7B000881100008BA
:04A9140059100008CE
:10A91800711600086B160008B5160008D516000851
:10A928001A03000000000000000000000000000002
:10A9380000000000000000000000000004030904FB
:10A948001201000202020040D0167E11000201022C
:10A958000301000099180008A51800081919000833
:10A9680035190008DD180008511900086D1900088C
:10A97800000000000024F40001000000D37F00085C
:10A98800101A0000DE8000080B1200002A9400084C
:10A99800070A000086A1000809074300020104C055
:10A9A800320904000001020201000524001001051B
:10A9B800240100010424020205240600010705827F
:10A9C8000308001009040100020A0000000705013D
:10A9D8000240000007058102400000000902430010
:10A9E80002010080FA0904000001020201000524A6
:10A9F80000100105240100010424020205240600B8
:10AA0800010705820308001009040100020A00007A
:10AA18000007050102400000070581024000000010
:10AA28000902430002010080FA0904000001020241
:10AA3800010005240010010524010001042402027C
:10AA48000524060001070582030800100904010017
:10AA5800020A000000070501024000000705810204
:10AA6800400000006B40000829400008873F0008AC
:10AA780000000000C73E00084B3F0008213F0008C7
:10AA8800000000000000000000000000FD3E00087B
:10AA9800F13E0008093F0008153F00080A060002B9
:10AAA800000000400100000001000000100000004C
:10AAB800000000000000000000000000000000008E
:10AAC800010000000000000000000000000000007D
:04AAD800682F0020C3
:040000050800374573
:00000001FF
